{
  "_format": "hh-sol-artifact-1",
  "contractName": "CarNFT",
  "sourceName": "contracts/CarNFT.sol",
  "abi": [
    {
      "inputs": [],
      "stateMutability": "nonpayable",
      "type": "constructor"
    },
    {
      "anonymous": false,
      "inputs": [
        {
          "indexed": true,
          "internalType": "address",
          "name": "owner",
          "type": "address"
        },
        {
          "indexed": true,
          "internalType": "address",
          "name": "approved",
          "type": "address"
        },
        {
          "indexed": true,
          "internalType": "uint256",
          "name": "tokenId",
          "type": "uint256"
        }
      ],
      "name": "Approval",
      "type": "event"
    },
    {
      "anonymous": false,
      "inputs": [
        {
          "indexed": true,
          "internalType": "address",
          "name": "owner",
          "type": "address"
        },
        {
          "indexed": true,
          "internalType": "address",
          "name": "operator",
          "type": "address"
        },
        {
          "indexed": false,
          "internalType": "bool",
          "name": "approved",
          "type": "bool"
        }
      ],
      "name": "ApprovalForAll",
      "type": "event"
    },
    {
      "anonymous": false,
      "inputs": [
        {
          "indexed": true,
          "internalType": "address",
          "name": "previousOwner",
          "type": "address"
        },
        {
          "indexed": true,
          "internalType": "address",
          "name": "newOwner",
          "type": "address"
        }
      ],
      "name": "OwnershipTransferred",
      "type": "event"
    },
    {
      "anonymous": false,
      "inputs": [
        {
          "indexed": true,
          "internalType": "address",
          "name": "from",
          "type": "address"
        },
        {
          "indexed": true,
          "internalType": "address",
          "name": "to",
          "type": "address"
        },
        {
          "indexed": true,
          "internalType": "uint256",
          "name": "tokenId",
          "type": "uint256"
        }
      ],
      "name": "Transfer",
      "type": "event"
    },
    {
      "inputs": [
        {
          "internalType": "address",
          "name": "to",
          "type": "address"
        },
        {
          "internalType": "uint256",
          "name": "tokenId",
          "type": "uint256"
        }
      ],
      "name": "approve",
      "outputs": [],
      "stateMutability": "nonpayable",
      "type": "function"
    },
    {
      "inputs": [
        {
          "internalType": "address",
          "name": "owner",
          "type": "address"
        }
      ],
      "name": "balanceOf",
      "outputs": [
        {
          "internalType": "uint256",
          "name": "",
          "type": "uint256"
        }
      ],
      "stateMutability": "view",
      "type": "function"
    },
    {
      "inputs": [
        {
          "internalType": "uint256",
          "name": "newMintPrice",
          "type": "uint256"
        }
      ],
      "name": "changePrice",
      "outputs": [],
      "stateMutability": "nonpayable",
      "type": "function"
    },
    {
      "inputs": [
        {
          "internalType": "uint256",
          "name": "tokenId",
          "type": "uint256"
        }
      ],
      "name": "getApproved",
      "outputs": [
        {
          "internalType": "address",
          "name": "",
          "type": "address"
        }
      ],
      "stateMutability": "view",
      "type": "function"
    },
    {
      "inputs": [
        {
          "internalType": "address",
          "name": "owner",
          "type": "address"
        },
        {
          "internalType": "address",
          "name": "operator",
          "type": "address"
        }
      ],
      "name": "isApprovedForAll",
      "outputs": [
        {
          "internalType": "bool",
          "name": "",
          "type": "bool"
        }
      ],
      "stateMutability": "view",
      "type": "function"
    },
    {
      "inputs": [],
      "name": "name",
      "outputs": [
        {
          "internalType": "string",
          "name": "",
          "type": "string"
        }
      ],
      "stateMutability": "view",
      "type": "function"
    },
    {
      "inputs": [],
      "name": "owner",
      "outputs": [
        {
          "internalType": "address",
          "name": "",
          "type": "address"
        }
      ],
      "stateMutability": "view",
      "type": "function"
    },
    {
      "inputs": [
        {
          "internalType": "uint256",
          "name": "tokenId",
          "type": "uint256"
        }
      ],
      "name": "ownerOf",
      "outputs": [
        {
          "internalType": "address",
          "name": "",
          "type": "address"
        }
      ],
      "stateMutability": "view",
      "type": "function"
    },
    {
      "inputs": [],
      "name": "renounceOwnership",
      "outputs": [],
      "stateMutability": "nonpayable",
      "type": "function"
    },
    {
      "inputs": [
        {
          "internalType": "address",
          "name": "to",
          "type": "address"
        },
        {
          "internalType": "string",
          "name": "uri",
          "type": "string"
        }
      ],
      "name": "safeMint",
      "outputs": [],
      "stateMutability": "payable",
      "type": "function"
    },
    {
      "inputs": [
        {
          "internalType": "address",
          "name": "from",
          "type": "address"
        },
        {
          "internalType": "address",
          "name": "to",
          "type": "address"
        },
        {
          "internalType": "uint256",
          "name": "tokenId",
          "type": "uint256"
        }
      ],
      "name": "safeTransferFrom",
      "outputs": [],
      "stateMutability": "nonpayable",
      "type": "function"
    },
    {
      "inputs": [
        {
          "internalType": "address",
          "name": "from",
          "type": "address"
        },
        {
          "internalType": "address",
          "name": "to",
          "type": "address"
        },
        {
          "internalType": "uint256",
          "name": "tokenId",
          "type": "uint256"
        },
        {
          "internalType": "bytes",
          "name": "data",
          "type": "bytes"
        }
      ],
      "name": "safeTransferFrom",
      "outputs": [],
      "stateMutability": "nonpayable",
      "type": "function"
    },
    {
      "inputs": [
        {
          "internalType": "address",
          "name": "operator",
          "type": "address"
        },
        {
          "internalType": "bool",
          "name": "approved",
          "type": "bool"
        }
      ],
      "name": "setApprovalForAll",
      "outputs": [],
      "stateMutability": "nonpayable",
      "type": "function"
    },
    {
      "inputs": [
        {
          "internalType": "bytes4",
          "name": "interfaceId",
          "type": "bytes4"
        }
      ],
      "name": "supportsInterface",
      "outputs": [
        {
          "internalType": "bool",
          "name": "",
          "type": "bool"
        }
      ],
      "stateMutability": "view",
      "type": "function"
    },
    {
      "inputs": [],
      "name": "symbol",
      "outputs": [
        {
          "internalType": "string",
          "name": "",
          "type": "string"
        }
      ],
      "stateMutability": "view",
      "type": "function"
    },
    {
      "inputs": [
        {
          "internalType": "uint256",
          "name": "tokenId",
          "type": "uint256"
        }
      ],
      "name": "tokenURI",
      "outputs": [
        {
          "internalType": "string",
          "name": "",
          "type": "string"
        }
      ],
      "stateMutability": "view",
      "type": "function"
    },
    {
      "inputs": [
        {
          "internalType": "address",
          "name": "from",
          "type": "address"
        },
        {
          "internalType": "address",
          "name": "to",
          "type": "address"
        },
        {
          "internalType": "uint256",
          "name": "tokenId",
          "type": "uint256"
        }
      ],
      "name": "transferFrom",
      "outputs": [],
      "stateMutability": "nonpayable",
      "type": "function"
    },
    {
      "inputs": [
        {
          "internalType": "address",
          "name": "newOwner",
          "type": "address"
        }
      ],
      "name": "transferOwnership",
      "outputs": [],
      "stateMutability": "nonpayable",
      "type": "function"
    }
  ],
  "bytecode": "0x6080604052662386f26fc100006009553480156200001c57600080fd5b506040518060400160405280600681526020017f4361724e465400000000000000000000000000000000000000000000000000008152506040518060400160405280600381526020017f434152000000000000000000000000000000000000000000000000000000000081525081600090816200009a91906200041d565b508060019081620000ac91906200041d565b505050620000cf620000c3620000d560201b60201c565b620000dd60201b60201c565b62000504565b600033905090565b6000600760009054906101000a900473ffffffffffffffffffffffffffffffffffffffff16905081600760006101000a81548173ffffffffffffffffffffffffffffffffffffffff021916908373ffffffffffffffffffffffffffffffffffffffff1602179055508173ffffffffffffffffffffffffffffffffffffffff168173ffffffffffffffffffffffffffffffffffffffff167f8be0079c531659141344cd1fd0a4f28419497f9722a3daafe3b4186f6b6457e060405160405180910390a35050565b600081519050919050565b7f4e487b7100000000000000000000000000000000000000000000000000000000600052604160045260246000fd5b7f4e487b7100000000000000000000000000000000000000000000000000000000600052602260045260246000fd5b600060028204905060018216806200022557607f821691505b6020821081036200023b576200023a620001dd565b5b50919050565b60008190508160005260206000209050919050565b60006020601f8301049050919050565b600082821b905092915050565b600060088302620002a57fffffffffffffffffffffffffffffffffffffffffffffffffffffffffffffffff8262000266565b620002b1868362000266565b95508019841693508086168417925050509392505050565b6000819050919050565b6000819050919050565b6000620002fe620002f8620002f284620002c9565b620002d3565b620002c9565b9050919050565b6000819050919050565b6200031a83620002dd565b62000332620003298262000305565b84845462000273565b825550505050565b600090565b620003496200033a565b620003568184846200030f565b505050565b5b818110156200037e57620003726000826200033f565b6001810190506200035c565b5050565b601f821115620003cd57620003978162000241565b620003a28462000256565b81016020851015620003b2578190505b620003ca620003c18562000256565b8301826200035b565b50505b505050565b600082821c905092915050565b6000620003f260001984600802620003d2565b1980831691505092915050565b60006200040d8383620003df565b9150826002028217905092915050565b6200042882620001a3565b67ffffffffffffffff811115620004445762000443620001ae565b5b6200045082546200020c565b6200045d82828562000382565b600060209050601f83116001811462000495576000841562000480578287015190505b6200048c8582620003ff565b865550620004fc565b601f198416620004a58662000241565b60005b82811015620004cf57848901518255600182019150602085019450602081019050620004a8565b86831015620004ef5784890151620004eb601f891682620003df565b8355505b6001600288020188555050505b505050505050565b612f2e80620005146000396000f3fe6080604052600436106101095760003560e01c80638da5cb5b11610095578063b88d4fde11610064578063b88d4fde14610367578063c87b56dd14610390578063d204c45e146103cd578063e985e9c5146103e9578063f2fde38b1461042657610109565b80638da5cb5b146102bf57806395d89b41146102ea578063a22cb46514610315578063a2b40d191461033e57610109565b806323b872dd116100dc57806323b872dd146101dc57806342842e0e146102055780636352211e1461022e57806370a082311461026b578063715018a6146102a857610109565b806301ffc9a71461010e57806306fdde031461014b578063081812fc14610176578063095ea7b3146101b3575b600080fd5b34801561011a57600080fd5b5061013560048036038101906101309190611baf565b61044f565b6040516101429190611bf7565b60405180910390f35b34801561015757600080fd5b50610160610531565b60405161016d9190611ca2565b60405180910390f35b34801561018257600080fd5b5061019d60048036038101906101989190611cfa565b6105c3565b6040516101aa9190611d68565b60405180910390f35b3480156101bf57600080fd5b506101da60048036038101906101d59190611daf565b610609565b005b3480156101e857600080fd5b5061020360048036038101906101fe9190611def565b610720565b005b34801561021157600080fd5b5061022c60048036038101906102279190611def565b610780565b005b34801561023a57600080fd5b5061025560048036038101906102509190611cfa565b6107a0565b6040516102629190611d68565b60405180910390f35b34801561027757600080fd5b50610292600480360381019061028d9190611e42565b610851565b60405161029f9190611e7e565b60405180910390f35b3480156102b457600080fd5b506102bd610908565b005b3480156102cb57600080fd5b506102d461091c565b6040516102e19190611d68565b60405180910390f35b3480156102f657600080fd5b506102ff610946565b60405161030c9190611ca2565b60405180910390f35b34801561032157600080fd5b5061033c60048036038101906103379190611ec5565b6109d8565b005b34801561034a57600080fd5b5061036560048036038101906103609190611cfa565b6109ee565b005b34801561037357600080fd5b5061038e6004803603810190610389919061203a565b610a00565b005b34801561039c57600080fd5b506103b760048036038101906103b29190611cfa565b610a62565b6040516103c49190611ca2565b60405180910390f35b6103e760048036038101906103e2919061215e565b610a74565b005b3480156103f557600080fd5b50610410600480360381019061040b91906121ba565b610abb565b60405161041d9190611bf7565b60405180910390f35b34801561043257600080fd5b5061044d60048036038101906104489190611e42565b610b4f565b005b60007f80ac58cd000000000000000000000000000000000000000000000000000000007bffffffffffffffffffffffffffffffffffffffffffffffffffffffff1916827bffffffffffffffffffffffffffffffffffffffffffffffffffffffff1916148061051a57507f5b5e139f000000000000000000000000000000000000000000000000000000007bffffffffffffffffffffffffffffffffffffffffffffffffffffffff1916827bffffffffffffffffffffffffffffffffffffffffffffffffffffffff1916145b8061052a575061052982610bd2565b5b9050919050565b60606000805461054090612229565b80601f016020809104026020016040519081016040528092919081815260200182805461056c90612229565b80156105b95780601f1061058e576101008083540402835291602001916105b9565b820191906000526020600020905b81548152906001019060200180831161059c57829003601f168201915b5050505050905090565b60006105ce82610c3c565b6004600083815260200190815260200160002060009054906101000a900473ffffffffffffffffffffffffffffffffffffffff169050919050565b6000610614826107a0565b90508073ffffffffffffffffffffffffffffffffffffffff168373ffffffffffffffffffffffffffffffffffffffff1603610684576040517f08c379a000000000000000000000000000000000000000000000000000000000815260040161067b906122cc565b60405180910390fd5b8073ffffffffffffffffffffffffffffffffffffffff166106a3610c87565b73ffffffffffffffffffffffffffffffffffffffff1614806106d257506106d1816106cc610c87565b610abb565b5b610711576040517f08c379a00000000000000000000000000000000000000000000000000000000081526004016107089061235e565b60405180910390fd5b61071b8383610c8f565b505050565b61073161072b610c87565b82610d48565b610770576040517f08c379a0000000000000000000000000000000000000000000000000000000008152600401610767906123f0565b60405180910390fd5b61077b838383610ddd565b505050565b61079b83838360405180602001604052806000815250610a00565b505050565b6000806002600084815260200190815260200160002060009054906101000a900473ffffffffffffffffffffffffffffffffffffffff169050600073ffffffffffffffffffffffffffffffffffffffff168173ffffffffffffffffffffffffffffffffffffffff1603610848576040517f08c379a000000000000000000000000000000000000000000000000000000000815260040161083f9061245c565b60405180910390fd5b80915050919050565b60008073ffffffffffffffffffffffffffffffffffffffff168273ffffffffffffffffffffffffffffffffffffffff16036108c1576040517f08c379a00000000000000000000000000000000000000000000000000000000081526004016108b8906124ee565b60405180910390fd5b600360008373ffffffffffffffffffffffffffffffffffffffff1673ffffffffffffffffffffffffffffffffffffffff168152602001908152602001600020549050919050565b610910611043565b61091a60006110c1565b565b6000600760009054906101000a900473ffffffffffffffffffffffffffffffffffffffff16905090565b60606001805461095590612229565b80601f016020809104026020016040519081016040528092919081815260200182805461098190612229565b80156109ce5780601f106109a3576101008083540402835291602001916109ce565b820191906000526020600020905b8154815290600101906020018083116109b157829003601f168201915b5050505050905090565b6109ea6109e3610c87565b8383611187565b5050565b6109f6611043565b8060098190555050565b610a11610a0b610c87565b83610d48565b610a50576040517f08c379a0000000000000000000000000000000000000000000000000000000008152600401610a47906123f0565b60405180910390fd5b610a5c848484846112f3565b50505050565b6060610a6d8261134f565b9050919050565b610a7c611043565b6009543414610a8a57600080fd5b6000610a966008611461565b9050610aa2600861146f565b610aac8382611485565b610ab681836114a3565b505050565b6000600560008473ffffffffffffffffffffffffffffffffffffffff1673ffffffffffffffffffffffffffffffffffffffff16815260200190815260200160002060008373ffffffffffffffffffffffffffffffffffffffff1673ffffffffffffffffffffffffffffffffffffffff16815260200190815260200160002060009054906101000a900460ff16905092915050565b610b57611043565b600073ffffffffffffffffffffffffffffffffffffffff168173ffffffffffffffffffffffffffffffffffffffff1603610bc6576040517f08c379a0000000000000000000000000000000000000000000000000000000008152600401610bbd90612580565b60405180910390fd5b610bcf816110c1565b50565b60007f01ffc9a7000000000000000000000000000000000000000000000000000000007bffffffffffffffffffffffffffffffffffffffffffffffffffffffff1916827bffffffffffffffffffffffffffffffffffffffffffffffffffffffff1916149050919050565b610c4581611510565b610c84576040517f08c379a0000000000000000000000000000000000000000000000000000000008152600401610c7b9061245c565b60405180910390fd5b50565b600033905090565b816004600083815260200190815260200160002060006101000a81548173ffffffffffffffffffffffffffffffffffffffff021916908373ffffffffffffffffffffffffffffffffffffffff160217905550808273ffffffffffffffffffffffffffffffffffffffff16610d02836107a0565b73ffffffffffffffffffffffffffffffffffffffff167f8c5be1e5ebec7d5bd14f71427d1e84f3dd0314c0f7b2291e5b200ac8c7c3b92560405160405180910390a45050565b600080610d54836107a0565b90508073ffffffffffffffffffffffffffffffffffffffff168473ffffffffffffffffffffffffffffffffffffffff161480610d965750610d958185610abb565b5b80610dd457508373ffffffffffffffffffffffffffffffffffffffff16610dbc846105c3565b73ffffffffffffffffffffffffffffffffffffffff16145b91505092915050565b8273ffffffffffffffffffffffffffffffffffffffff16610dfd826107a0565b73ffffffffffffffffffffffffffffffffffffffff1614610e53576040517f08c379a0000000000000000000000000000000000000000000000000000000008152600401610e4a90612612565b60405180910390fd5b600073ffffffffffffffffffffffffffffffffffffffff168273ffffffffffffffffffffffffffffffffffffffff1603610ec2576040517f08c379a0000000000000000000000000000000000000000000000000000000008152600401610eb9906126a4565b60405180910390fd5b610ecd83838361157c565b610ed8600082610c8f565b6001600360008573ffffffffffffffffffffffffffffffffffffffff1673ffffffffffffffffffffffffffffffffffffffff1681526020019081526020016000206000828254610f2891906126f3565b925050819055506001600360008473ffffffffffffffffffffffffffffffffffffffff1673ffffffffffffffffffffffffffffffffffffffff1681526020019081526020016000206000828254610f7f9190612727565b92505081905550816002600083815260200190815260200160002060006101000a81548173ffffffffffffffffffffffffffffffffffffffff021916908373ffffffffffffffffffffffffffffffffffffffff160217905550808273ffffffffffffffffffffffffffffffffffffffff168473ffffffffffffffffffffffffffffffffffffffff167fddf252ad1be2c89b69c2b068fc378daa952ba7f163c4a11628f55a4df523b3ef60405160405180910390a461103e838383611581565b505050565b61104b610c87565b73ffffffffffffffffffffffffffffffffffffffff1661106961091c565b73ffffffffffffffffffffffffffffffffffffffff16146110bf576040517f08c379a00000000000000000000000000000000000000000000000000000000081526004016110b6906127a7565b60405180910390fd5b565b6000600760009054906101000a900473ffffffffffffffffffffffffffffffffffffffff16905081600760006101000a81548173ffffffffffffffffffffffffffffffffffffffff021916908373ffffffffffffffffffffffffffffffffffffffff1602179055508173ffffffffffffffffffffffffffffffffffffffff168173ffffffffffffffffffffffffffffffffffffffff167f8be0079c531659141344cd1fd0a4f28419497f9722a3daafe3b4186f6b6457e060405160405180910390a35050565b8173ffffffffffffffffffffffffffffffffffffffff168373ffffffffffffffffffffffffffffffffffffffff16036111f5576040517f08c379a00000000000000000000000000000000000000000000000000000000081526004016111ec90612813565b60405180910390fd5b80600560008573ffffffffffffffffffffffffffffffffffffffff1673ffffffffffffffffffffffffffffffffffffffff16815260200190815260200160002060008473ffffffffffffffffffffffffffffffffffffffff1673ffffffffffffffffffffffffffffffffffffffff16815260200190815260200160002060006101000a81548160ff0219169083151502179055508173ffffffffffffffffffffffffffffffffffffffff168373ffffffffffffffffffffffffffffffffffffffff167f17307eab39ab6107e8899845ad3d59bd9653f200f220920489ca2b5937696c31836040516112e69190611bf7565b60405180910390a3505050565b6112fe848484610ddd565b61130a84848484611586565b611349576040517f08c379a0000000000000000000000000000000000000000000000000000000008152600401611340906128a5565b60405180910390fd5b50505050565b606061135a82610c3c565b600060066000848152602001908152602001600020805461137a90612229565b80601f01602080910402602001604051908101604052809291908181526020018280546113a690612229565b80156113f35780601f106113c8576101008083540402835291602001916113f3565b820191906000526020600020905b8154815290600101906020018083116113d657829003601f168201915b50505050509050600061140461170d565b9050600081510361141957819250505061145c565b60008251111561144e578082604051602001611436929190612901565b6040516020818303038152906040529250505061145c565b61145784611724565b925050505b919050565b600081600001549050919050565b6001816000016000828254019250508190555050565b61149f82826040518060200160405280600081525061178c565b5050565b6114ac82611510565b6114eb576040517f08c379a00000000000000000000000000000000000000000000000000000000081526004016114e290612997565b60405180910390fd5b8060066000848152602001908152602001600020908161150b9190612b63565b505050565b60008073ffffffffffffffffffffffffffffffffffffffff166002600084815260200190815260200160002060009054906101000a900473ffffffffffffffffffffffffffffffffffffffff1673ffffffffffffffffffffffffffffffffffffffff1614159050919050565b505050565b505050565b60006115a78473ffffffffffffffffffffffffffffffffffffffff166117e7565b15611700578373ffffffffffffffffffffffffffffffffffffffff1663150b7a026115d0610c87565b8786866040518563ffffffff1660e01b81526004016115f29493929190612c8a565b6020604051808303816000875af192505050801561162e57506040513d601f19601f8201168201806040525081019061162b9190612ceb565b60015b6116b0573d806000811461165e576040519150601f19603f3d011682016040523d82523d6000602084013e611663565b606091505b5060008151036116a8576040517f08c379a000000000000000000000000000000000000000000000000000000000815260040161169f906128a5565b60405180910390fd5b805181602001fd5b63150b7a0260e01b7bffffffffffffffffffffffffffffffffffffffffffffffffffffffff1916817bffffffffffffffffffffffffffffffffffffffffffffffffffffffff191614915050611705565b600190505b949350505050565b606060405180602001604052806000815250905090565b606061172f82610c3c565b600061173961170d565b905060008151116117595760405180602001604052806000815250611784565b806117638461180a565b604051602001611774929190612901565b6040516020818303038152906040525b915050919050565b611796838361196a565b6117a36000848484611586565b6117e2576040517f08c379a00000000000000000000000000000000000000000000000000000000081526004016117d9906128a5565b60405180910390fd5b505050565b6000808273ffffffffffffffffffffffffffffffffffffffff163b119050919050565b606060008203611851576040518060400160405280600181526020017f30000000000000000000000000000000000000000000000000000000000000008152509050611965565b600082905060005b6000821461188357808061186c90612d18565b915050600a8261187c9190612d8f565b9150611859565b60008167ffffffffffffffff81111561189f5761189e611f0f565b5b6040519080825280601f01601f1916602001820160405280156118d15781602001600182028036833780820191505090505b5090505b6000851461195e576001826118ea91906126f3565b9150600a856118f99190612dc0565b60306119059190612727565b60f81b81838151811061191b5761191a612df1565b5b60200101907effffffffffffffffffffffffffffffffffffffffffffffffffffffffffffff1916908160001a905350600a856119579190612d8f565b94506118d5565b8093505050505b919050565b600073ffffffffffffffffffffffffffffffffffffffff168273ffffffffffffffffffffffffffffffffffffffff16036119d9576040517f08c379a00000000000000000000000000000000000000000000000000000000081526004016119d090612e6c565b60405180910390fd5b6119e281611510565b15611a22576040517f08c379a0000000000000000000000000000000000000000000000000000000008152600401611a1990612ed8565b60405180910390fd5b611a2e6000838361157c565b6001600360008473ffffffffffffffffffffffffffffffffffffffff1673ffffffffffffffffffffffffffffffffffffffff1681526020019081526020016000206000828254611a7e9190612727565b92505081905550816002600083815260200190815260200160002060006101000a81548173ffffffffffffffffffffffffffffffffffffffff021916908373ffffffffffffffffffffffffffffffffffffffff160217905550808273ffffffffffffffffffffffffffffffffffffffff16600073ffffffffffffffffffffffffffffffffffffffff167fddf252ad1be2c89b69c2b068fc378daa952ba7f163c4a11628f55a4df523b3ef60405160405180910390a4611b3f60008383611581565b5050565b6000604051905090565b600080fd5b600080fd5b60007fffffffff0000000000000000000000000000000000000000000000000000000082169050919050565b611b8c81611b57565b8114611b9757600080fd5b50565b600081359050611ba981611b83565b92915050565b600060208284031215611bc557611bc4611b4d565b5b6000611bd384828501611b9a565b91505092915050565b60008115159050919050565b611bf181611bdc565b82525050565b6000602082019050611c0c6000830184611be8565b92915050565b600081519050919050565b600082825260208201905092915050565b60005b83811015611c4c578082015181840152602081019050611c31565b60008484015250505050565b6000601f19601f8301169050919050565b6000611c7482611c12565b611c7e8185611c1d565b9350611c8e818560208601611c2e565b611c9781611c58565b840191505092915050565b60006020820190508181036000830152611cbc8184611c69565b905092915050565b6000819050919050565b611cd781611cc4565b8114611ce257600080fd5b50565b600081359050611cf481611cce565b92915050565b600060208284031215611d1057611d0f611b4d565b5b6000611d1e84828501611ce5565b91505092915050565b600073ffffffffffffffffffffffffffffffffffffffff82169050919050565b6000611d5282611d27565b9050919050565b611d6281611d47565b82525050565b6000602082019050611d7d6000830184611d59565b92915050565b611d8c81611d47565b8114611d9757600080fd5b50565b600081359050611da981611d83565b92915050565b60008060408385031215611dc657611dc5611b4d565b5b6000611dd485828601611d9a565b9250506020611de585828601611ce5565b9150509250929050565b600080600060608486031215611e0857611e07611b4d565b5b6000611e1686828701611d9a565b9350506020611e2786828701611d9a565b9250506040611e3886828701611ce5565b9150509250925092565b600060208284031215611e5857611e57611b4d565b5b6000611e6684828501611d9a565b91505092915050565b611e7881611cc4565b82525050565b6000602082019050611e936000830184611e6f565b92915050565b611ea281611bdc565b8114611ead57600080fd5b50565b600081359050611ebf81611e99565b92915050565b60008060408385031215611edc57611edb611b4d565b5b6000611eea85828601611d9a565b9250506020611efb85828601611eb0565b9150509250929050565b600080fd5b600080fd5b7f4e487b7100000000000000000000000000000000000000000000000000000000600052604160045260246000fd5b611f4782611c58565b810181811067ffffffffffffffff82111715611f6657611f65611f0f565b5b80604052505050565b6000611f79611b43565b9050611f858282611f3e565b919050565b600067ffffffffffffffff821115611fa557611fa4611f0f565b5b611fae82611c58565b9050602081019050919050565b82818337600083830152505050565b6000611fdd611fd884611f8a565b611f6f565b905082815260208101848484011115611ff957611ff8611f0a565b5b612004848285611fbb565b509392505050565b600082601f83011261202157612020611f05565b5b8135612031848260208601611fca565b91505092915050565b6000806000806080858703121561205457612053611b4d565b5b600061206287828801611d9a565b945050602061207387828801611d9a565b935050604061208487828801611ce5565b925050606085013567ffffffffffffffff8111156120a5576120a4611b52565b5b6120b18782880161200c565b91505092959194509250565b600067ffffffffffffffff8211156120d8576120d7611f0f565b5b6120e182611c58565b9050602081019050919050565b60006121016120fc846120bd565b611f6f565b90508281526020810184848401111561211d5761211c611f0a565b5b612128848285611fbb565b509392505050565b600082601f83011261214557612144611f05565b5b81356121558482602086016120ee565b91505092915050565b6000806040838503121561217557612174611b4d565b5b600061218385828601611d9a565b925050602083013567ffffffffffffffff8111156121a4576121a3611b52565b5b6121b085828601612130565b9150509250929050565b600080604083850312156121d1576121d0611b4d565b5b60006121df85828601611d9a565b92505060206121f085828601611d9a565b9150509250929050565b7f4e487b7100000000000000000000000000000000000000000000000000000000600052602260045260246000fd5b6000600282049050600182168061224157607f821691505b602082108103612254576122536121fa565b5b50919050565b7f4552433732313a20617070726f76616c20746f2063757272656e74206f776e6560008201527f7200000000000000000000000000000000000000000000000000000000000000602082015250565b60006122b6602183611c1d565b91506122c18261225a565b604082019050919050565b600060208201905081810360008301526122e5816122a9565b9050919050565b7f4552433732313a20617070726f76652063616c6c6572206973206e6f7420746f60008201527f6b656e206f776e6572206e6f7220617070726f76656420666f7220616c6c0000602082015250565b6000612348603e83611c1d565b9150612353826122ec565b604082019050919050565b600060208201905081810360008301526123778161233b565b9050919050565b7f4552433732313a2063616c6c6572206973206e6f7420746f6b656e206f776e6560008201527f72206e6f7220617070726f766564000000000000000000000000000000000000602082015250565b60006123da602e83611c1d565b91506123e58261237e565b604082019050919050565b60006020820190508181036000830152612409816123cd565b9050919050565b7f4552433732313a20696e76616c696420746f6b656e2049440000000000000000600082015250565b6000612446601883611c1d565b915061245182612410565b602082019050919050565b6000602082019050818103600083015261247581612439565b9050919050565b7f4552433732313a2061646472657373207a65726f206973206e6f74206120766160008201527f6c6964206f776e65720000000000000000000000000000000000000000000000602082015250565b60006124d8602983611c1d565b91506124e38261247c565b604082019050919050565b60006020820190508181036000830152612507816124cb565b9050919050565b7f4f776e61626c653a206e6577206f776e657220697320746865207a65726f206160008201527f6464726573730000000000000000000000000000000000000000000000000000602082015250565b600061256a602683611c1d565b91506125758261250e565b604082019050919050565b600060208201905081810360008301526125998161255d565b9050919050565b7f4552433732313a207472616e736665722066726f6d20696e636f72726563742060008201527f6f776e6572000000000000000000000000000000000000000000000000000000602082015250565b60006125fc602583611c1d565b9150612607826125a0565b604082019050919050565b6000602082019050818103600083015261262b816125ef565b9050919050565b7f4552433732313a207472616e7366657220746f20746865207a65726f2061646460008201527f7265737300000000000000000000000000000000000000000000000000000000602082015250565b600061268e602483611c1d565b915061269982612632565b604082019050919050565b600060208201905081810360008301526126bd81612681565b9050919050565b7f4e487b7100000000000000000000000000000000000000000000000000000000600052601160045260246000fd5b60006126fe82611cc4565b915061270983611cc4565b9250828203905081811115612721576127206126c4565b5b92915050565b600061273282611cc4565b915061273d83611cc4565b9250828201905080821115612755576127546126c4565b5b92915050565b7f4f776e61626c653a2063616c6c6572206973206e6f7420746865206f776e6572600082015250565b6000612791602083611c1d565b915061279c8261275b565b602082019050919050565b600060208201905081810360008301526127c081612784565b9050919050565b7f4552433732313a20617070726f766520746f2063616c6c657200000000000000600082015250565b60006127fd601983611c1d565b9150612808826127c7565b602082019050919050565b6000602082019050818103600083015261282c816127f0565b9050919050565b7f4552433732313a207472616e7366657220746f206e6f6e20455243373231526560008201527f63656976657220696d706c656d656e7465720000000000000000000000000000602082015250565b600061288f603283611c1d565b915061289a82612833565b604082019050919050565b600060208201905081810360008301526128be81612882565b9050919050565b600081905092915050565b60006128db82611c12565b6128e581856128c5565b93506128f5818560208601611c2e565b80840191505092915050565b600061290d82856128d0565b915061291982846128d0565b91508190509392505050565b7f45524337323155524953746f726167653a2055524920736574206f66206e6f6e60008201527f6578697374656e7420746f6b656e000000000000000000000000000000000000602082015250565b6000612981602e83611c1d565b915061298c82612925565b604082019050919050565b600060208201905081810360008301526129b081612974565b9050919050565b60008190508160005260206000209050919050565b60006020601f8301049050919050565b600082821b905092915050565b600060088302612a197fffffffffffffffffffffffffffffffffffffffffffffffffffffffffffffffff826129dc565b612a2386836129dc565b95508019841693508086168417925050509392505050565b6000819050919050565b6000612a60612a5b612a5684611cc4565b612a3b565b611cc4565b9050919050565b6000819050919050565b612a7a83612a45565b612a8e612a8682612a67565b8484546129e9565b825550505050565b600090565b612aa3612a96565b612aae818484612a71565b505050565b5b81811015612ad257612ac7600082612a9b565b600181019050612ab4565b5050565b601f821115612b1757612ae8816129b7565b612af1846129cc565b81016020851015612b00578190505b612b14612b0c856129cc565b830182612ab3565b50505b505050565b600082821c905092915050565b6000612b3a60001984600802612b1c565b1980831691505092915050565b6000612b538383612b29565b9150826002028217905092915050565b612b6c82611c12565b67ffffffffffffffff811115612b8557612b84611f0f565b5b612b8f8254612229565b612b9a828285612ad6565b600060209050601f831160018114612bcd5760008415612bbb578287015190505b612bc58582612b47565b865550612c2d565b601f198416612bdb866129b7565b60005b82811015612c0357848901518255600182019150602085019450602081019050612bde565b86831015612c205784890151612c1c601f891682612b29565b8355505b6001600288020188555050505b505050505050565b600081519050919050565b600082825260208201905092915050565b6000612c5c82612c35565b612c668185612c40565b9350612c76818560208601611c2e565b612c7f81611c58565b840191505092915050565b6000608082019050612c9f6000830187611d59565b612cac6020830186611d59565b612cb96040830185611e6f565b8181036060830152612ccb8184612c51565b905095945050505050565b600081519050612ce581611b83565b92915050565b600060208284031215612d0157612d00611b4d565b5b6000612d0f84828501612cd6565b91505092915050565b6000612d2382611cc4565b91507fffffffffffffffffffffffffffffffffffffffffffffffffffffffffffffffff8203612d5557612d546126c4565b5b600182019050919050565b7f4e487b7100000000000000000000000000000000000000000000000000000000600052601260045260246000fd5b6000612d9a82611cc4565b9150612da583611cc4565b925082612db557612db4612d60565b5b828204905092915050565b6000612dcb82611cc4565b9150612dd683611cc4565b925082612de657612de5612d60565b5b828206905092915050565b7f4e487b7100000000000000000000000000000000000000000000000000000000600052603260045260246000fd5b7f4552433732313a206d696e7420746f20746865207a65726f2061646472657373600082015250565b6000612e56602083611c1d565b9150612e6182612e20565b602082019050919050565b60006020820190508181036000830152612e8581612e49565b9050919050565b7f4552433732313a20746f6b656e20616c7265616479206d696e74656400000000600082015250565b6000612ec2601c83611c1d565b9150612ecd82612e8c565b602082019050919050565b60006020820190508181036000830152612ef181612eb5565b905091905056fea26469706673582212202ca48c28ab85633cadaa933fd042a9f46376785f9c204f9d1bf5c1dd46827a2c64736f6c63430008110033",
  "linkReferences": {},
  "deployedLinkReferences": {}
}