{
  "_format": "hh-sol-artifact-1",
  "contractName": "CarNFT",
  "sourceName": "contracts/CarNFT.sol",
  "abi": [
    {
      "inputs": [],
      "stateMutability": "nonpayable",
      "type": "constructor"
    },
    {
      "anonymous": false,
      "inputs": [
        {
          "indexed": true,
          "internalType": "address",
          "name": "owner",
          "type": "address"
        },
        {
          "indexed": true,
          "internalType": "address",
          "name": "approved",
          "type": "address"
        },
        {
          "indexed": true,
          "internalType": "uint256",
          "name": "tokenId",
          "type": "uint256"
        }
      ],
      "name": "Approval",
      "type": "event"
    },
    {
      "anonymous": false,
      "inputs": [
        {
          "indexed": true,
          "internalType": "address",
          "name": "owner",
          "type": "address"
        },
        {
          "indexed": true,
          "internalType": "address",
          "name": "operator",
          "type": "address"
        },
        {
          "indexed": false,
          "internalType": "bool",
          "name": "approved",
          "type": "bool"
        }
      ],
      "name": "ApprovalForAll",
      "type": "event"
    },
    {
      "anonymous": false,
      "inputs": [
        {
          "indexed": true,
          "internalType": "address",
          "name": "previousOwner",
          "type": "address"
        },
        {
          "indexed": true,
          "internalType": "address",
          "name": "newOwner",
          "type": "address"
        }
      ],
      "name": "OwnershipTransferred",
      "type": "event"
    },
    {
      "anonymous": false,
      "inputs": [
        {
          "indexed": true,
          "internalType": "address",
          "name": "from",
          "type": "address"
        },
        {
          "indexed": true,
          "internalType": "address",
          "name": "to",
          "type": "address"
        },
        {
          "indexed": true,
          "internalType": "uint256",
          "name": "tokenId",
          "type": "uint256"
        }
      ],
      "name": "Transfer",
      "type": "event"
    },
    {
      "inputs": [
        {
          "internalType": "address",
          "name": "to",
          "type": "address"
        },
        {
          "internalType": "uint256",
          "name": "tokenId",
          "type": "uint256"
        }
      ],
      "name": "approve",
      "outputs": [],
      "stateMutability": "nonpayable",
      "type": "function"
    },
    {
      "inputs": [
        {
          "internalType": "address",
          "name": "owner",
          "type": "address"
        }
      ],
      "name": "balanceOf",
      "outputs": [
        {
          "internalType": "uint256",
          "name": "",
          "type": "uint256"
        }
      ],
      "stateMutability": "view",
      "type": "function"
    },
    {
      "inputs": [
        {
          "internalType": "uint256",
          "name": "newMintPrice",
          "type": "uint256"
        }
      ],
      "name": "changePrice",
      "outputs": [],
      "stateMutability": "nonpayable",
      "type": "function"
    },
    {
      "inputs": [
        {
          "internalType": "uint256",
          "name": "tokenId",
          "type": "uint256"
        }
      ],
      "name": "getApproved",
      "outputs": [
        {
          "internalType": "address",
          "name": "",
          "type": "address"
        }
      ],
      "stateMutability": "view",
      "type": "function"
    },
    {
      "inputs": [
        {
          "internalType": "address",
          "name": "owner",
          "type": "address"
        },
        {
          "internalType": "address",
          "name": "operator",
          "type": "address"
        }
      ],
      "name": "isApprovedForAll",
      "outputs": [
        {
          "internalType": "bool",
          "name": "",
          "type": "bool"
        }
      ],
      "stateMutability": "view",
      "type": "function"
    },
    {
      "inputs": [],
      "name": "name",
      "outputs": [
        {
          "internalType": "string",
          "name": "",
          "type": "string"
        }
      ],
      "stateMutability": "view",
      "type": "function"
    },
    {
      "inputs": [],
      "name": "owner",
      "outputs": [
        {
          "internalType": "address",
          "name": "",
          "type": "address"
        }
      ],
      "stateMutability": "view",
      "type": "function"
    },
    {
      "inputs": [
        {
          "internalType": "uint256",
          "name": "tokenId",
          "type": "uint256"
        }
      ],
      "name": "ownerOf",
      "outputs": [
        {
          "internalType": "address",
          "name": "",
          "type": "address"
        }
      ],
      "stateMutability": "view",
      "type": "function"
    },
    {
      "inputs": [],
      "name": "renounceOwnership",
      "outputs": [],
      "stateMutability": "nonpayable",
      "type": "function"
    },
    {
      "inputs": [
        {
          "internalType": "string",
          "name": "uri",
          "type": "string"
        }
      ],
      "name": "safeFreeMint",
      "outputs": [],
      "stateMutability": "nonpayable",
      "type": "function"
    },
    {
      "inputs": [
        {
          "internalType": "string",
          "name": "uri",
          "type": "string"
        }
      ],
      "name": "safeMint",
      "outputs": [],
      "stateMutability": "payable",
      "type": "function"
    },
    {
      "inputs": [
        {
          "internalType": "address",
          "name": "from",
          "type": "address"
        },
        {
          "internalType": "address",
          "name": "to",
          "type": "address"
        },
        {
          "internalType": "uint256",
          "name": "tokenId",
          "type": "uint256"
        }
      ],
      "name": "safeTransferFrom",
      "outputs": [],
      "stateMutability": "nonpayable",
      "type": "function"
    },
    {
      "inputs": [
        {
          "internalType": "address",
          "name": "from",
          "type": "address"
        },
        {
          "internalType": "address",
          "name": "to",
          "type": "address"
        },
        {
          "internalType": "uint256",
          "name": "tokenId",
          "type": "uint256"
        },
        {
          "internalType": "bytes",
          "name": "data",
          "type": "bytes"
        }
      ],
      "name": "safeTransferFrom",
      "outputs": [],
      "stateMutability": "nonpayable",
      "type": "function"
    },
    {
      "inputs": [
        {
          "internalType": "address",
          "name": "operator",
          "type": "address"
        },
        {
          "internalType": "bool",
          "name": "approved",
          "type": "bool"
        }
      ],
      "name": "setApprovalForAll",
      "outputs": [],
      "stateMutability": "nonpayable",
      "type": "function"
    },
    {
      "inputs": [
        {
          "internalType": "bytes4",
          "name": "interfaceId",
          "type": "bytes4"
        }
      ],
      "name": "supportsInterface",
      "outputs": [
        {
          "internalType": "bool",
          "name": "",
          "type": "bool"
        }
      ],
      "stateMutability": "view",
      "type": "function"
    },
    {
      "inputs": [],
      "name": "symbol",
      "outputs": [
        {
          "internalType": "string",
          "name": "",
          "type": "string"
        }
      ],
      "stateMutability": "view",
      "type": "function"
    },
    {
      "inputs": [
        {
          "internalType": "uint256",
          "name": "tokenId",
          "type": "uint256"
        }
      ],
      "name": "tokenURI",
      "outputs": [
        {
          "internalType": "string",
          "name": "",
          "type": "string"
        }
      ],
      "stateMutability": "view",
      "type": "function"
    },
    {
      "inputs": [
        {
          "internalType": "address",
          "name": "from",
          "type": "address"
        },
        {
          "internalType": "address",
          "name": "to",
          "type": "address"
        },
        {
          "internalType": "uint256",
          "name": "tokenId",
          "type": "uint256"
        }
      ],
      "name": "transferFrom",
      "outputs": [],
      "stateMutability": "nonpayable",
      "type": "function"
    },
    {
      "inputs": [
        {
          "internalType": "address",
          "name": "newOwner",
          "type": "address"
        }
      ],
      "name": "transferOwnership",
      "outputs": [],
      "stateMutability": "nonpayable",
      "type": "function"
    }
  ],
  "bytecode": "0x6080604052662386f26fc100006009553480156200001c57600080fd5b506040518060400160405280600681526020017f4361724e465400000000000000000000000000000000000000000000000000008152506040518060400160405280600381526020017f434152000000000000000000000000000000000000000000000000000000000081525081600090816200009a91906200041d565b508060019081620000ac91906200041d565b505050620000cf620000c3620000d560201b60201c565b620000dd60201b60201c565b62000504565b600033905090565b6000600760009054906101000a900473ffffffffffffffffffffffffffffffffffffffff16905081600760006101000a81548173ffffffffffffffffffffffffffffffffffffffff021916908373ffffffffffffffffffffffffffffffffffffffff1602179055508173ffffffffffffffffffffffffffffffffffffffff168173ffffffffffffffffffffffffffffffffffffffff167f8be0079c531659141344cd1fd0a4f28419497f9722a3daafe3b4186f6b6457e060405160405180910390a35050565b600081519050919050565b7f4e487b7100000000000000000000000000000000000000000000000000000000600052604160045260246000fd5b7f4e487b7100000000000000000000000000000000000000000000000000000000600052602260045260246000fd5b600060028204905060018216806200022557607f821691505b6020821081036200023b576200023a620001dd565b5b50919050565b60008190508160005260206000209050919050565b60006020601f8301049050919050565b600082821b905092915050565b600060088302620002a57fffffffffffffffffffffffffffffffffffffffffffffffffffffffffffffffff8262000266565b620002b1868362000266565b95508019841693508086168417925050509392505050565b6000819050919050565b6000819050919050565b6000620002fe620002f8620002f284620002c9565b620002d3565b620002c9565b9050919050565b6000819050919050565b6200031a83620002dd565b62000332620003298262000305565b84845462000273565b825550505050565b600090565b620003496200033a565b620003568184846200030f565b505050565b5b818110156200037e57620003726000826200033f565b6001810190506200035c565b5050565b601f821115620003cd57620003978162000241565b620003a28462000256565b81016020851015620003b2578190505b620003ca620003c18562000256565b8301826200035b565b50505b505050565b600082821c905092915050565b6000620003f260001984600802620003d2565b1980831691505092915050565b60006200040d8383620003df565b9150826002028217905092915050565b6200042882620001a3565b67ffffffffffffffff811115620004445762000443620001ae565b5b6200045082546200020c565b6200045d82828562000382565b600060209050601f83116001811462000495576000841562000480578287015190505b6200048c8582620003ff565b865550620004fc565b601f198416620004a58662000241565b60005b82811015620004cf57848901518255600182019150602085019450602081019050620004a8565b86831015620004ef5784890151620004eb601f891682620003df565b8355505b6001600288020188555050505b505050505050565b61302580620005146000396000f3fe6080604052600436106101145760003560e01c806370a08231116100a0578063a2b40d1911610064578063a2b40d191461038e578063b88d4fde146103b7578063c87b56dd146103e0578063e985e9c51461041d578063f2fde38b1461045a57610114565b806370a08231146102bb578063715018a6146102f85780638da5cb5b1461030f57806395d89b411461033a578063a22cb4651461036557610114565b806321eea6a7116100e757806321eea6a7146101e757806323b872dd1461021057806342842e0e146102395780636352211e14610262578063695850fb1461029f57610114565b806301ffc9a71461011957806306fdde0314610156578063081812fc14610181578063095ea7b3146101be575b600080fd5b34801561012557600080fd5b50610140600480360381019061013b9190611c4d565b610483565b60405161014d9190611c95565b60405180910390f35b34801561016257600080fd5b5061016b610565565b6040516101789190611d40565b60405180910390f35b34801561018d57600080fd5b506101a860048036038101906101a39190611d98565b6105f7565b6040516101b59190611e06565b60405180910390f35b3480156101ca57600080fd5b506101e560048036038101906101e09190611e4d565b61063d565b005b3480156101f357600080fd5b5061020e60048036038101906102099190611fc2565b610754565b005b34801561021c57600080fd5b506102376004803603810190610232919061200b565b61078a565b005b34801561024557600080fd5b50610260600480360381019061025b919061200b565b6107ea565b005b34801561026e57600080fd5b5061028960048036038101906102849190611d98565b61080a565b6040516102969190611e06565b60405180910390f35b6102b960048036038101906102b49190611fc2565b6108bb565b005b3480156102c757600080fd5b506102e260048036038101906102dd919061205e565b610936565b6040516102ef919061209a565b60405180910390f35b34801561030457600080fd5b5061030d6109ed565b005b34801561031b57600080fd5b50610324610a01565b6040516103319190611e06565b60405180910390f35b34801561034657600080fd5b5061034f610a2b565b60405161035c9190611d40565b60405180910390f35b34801561037157600080fd5b5061038c600480360381019061038791906120e1565b610abd565b005b34801561039a57600080fd5b506103b560048036038101906103b09190611d98565b610ad3565b005b3480156103c357600080fd5b506103de60048036038101906103d991906121c2565b610ae5565b005b3480156103ec57600080fd5b5061040760048036038101906104029190611d98565b610b47565b6040516104149190611d40565b60405180910390f35b34801561042957600080fd5b50610444600480360381019061043f9190612245565b610b59565b6040516104519190611c95565b60405180910390f35b34801561046657600080fd5b50610481600480360381019061047c919061205e565b610bed565b005b60007f80ac58cd000000000000000000000000000000000000000000000000000000007bffffffffffffffffffffffffffffffffffffffffffffffffffffffff1916827bffffffffffffffffffffffffffffffffffffffffffffffffffffffff1916148061054e57507f5b5e139f000000000000000000000000000000000000000000000000000000007bffffffffffffffffffffffffffffffffffffffffffffffffffffffff1916827bffffffffffffffffffffffffffffffffffffffffffffffffffffffff1916145b8061055e575061055d82610c70565b5b9050919050565b606060008054610574906122b4565b80601f01602080910402602001604051908101604052809291908181526020018280546105a0906122b4565b80156105ed5780601f106105c2576101008083540402835291602001916105ed565b820191906000526020600020905b8154815290600101906020018083116105d057829003601f168201915b5050505050905090565b600061060282610cda565b6004600083815260200190815260200160002060009054906101000a900473ffffffffffffffffffffffffffffffffffffffff169050919050565b60006106488261080a565b90508073ffffffffffffffffffffffffffffffffffffffff168373ffffffffffffffffffffffffffffffffffffffff16036106b8576040517f08c379a00000000000000000000000000000000000000000000000000000000081526004016106af90612357565b60405180910390fd5b8073ffffffffffffffffffffffffffffffffffffffff166106d7610d25565b73ffffffffffffffffffffffffffffffffffffffff161480610706575061070581610700610d25565b610b59565b5b610745576040517f08c379a000000000000000000000000000000000000000000000000000000000815260040161073c906123e9565b60405180910390fd5b61074f8383610d2d565b505050565b600033905060006107656008610de6565b90506107716008610df4565b61077b8282610e0a565b6107858184610e28565b505050565b61079b610795610d25565b82610e95565b6107da576040517f08c379a00000000000000000000000000000000000000000000000000000000081526004016107d19061247b565b60405180910390fd5b6107e5838383610f2a565b505050565b61080583838360405180602001604052806000815250610ae5565b505050565b6000806002600084815260200190815260200160002060009054906101000a900473ffffffffffffffffffffffffffffffffffffffff169050600073ffffffffffffffffffffffffffffffffffffffff168173ffffffffffffffffffffffffffffffffffffffff16036108b2576040517f08c379a00000000000000000000000000000000000000000000000000000000081526004016108a9906124e7565b60405180910390fd5b80915050919050565b600954341015610900576040517f08c379a00000000000000000000000000000000000000000000000000000000081526004016108f790612553565b60405180910390fd5b600033905060006109116008610de6565b905061091d6008610df4565b6109278282610e0a565b6109318184610e28565b505050565b60008073ffffffffffffffffffffffffffffffffffffffff168273ffffffffffffffffffffffffffffffffffffffff16036109a6576040517f08c379a000000000000000000000000000000000000000000000000000000000815260040161099d906125e5565b60405180910390fd5b600360008373ffffffffffffffffffffffffffffffffffffffff1673ffffffffffffffffffffffffffffffffffffffff168152602001908152602001600020549050919050565b6109f5611190565b6109ff600061120e565b565b6000600760009054906101000a900473ffffffffffffffffffffffffffffffffffffffff16905090565b606060018054610a3a906122b4565b80601f0160208091040260200160405190810160405280929190818152602001828054610a66906122b4565b8015610ab35780601f10610a8857610100808354040283529160200191610ab3565b820191906000526020600020905b815481529060010190602001808311610a9657829003601f168201915b5050505050905090565b610acf610ac8610d25565b83836112d4565b5050565b610adb611190565b8060098190555050565b610af6610af0610d25565b83610e95565b610b35576040517f08c379a0000000000000000000000000000000000000000000000000000000008152600401610b2c9061247b565b60405180910390fd5b610b4184848484611440565b50505050565b6060610b528261149c565b9050919050565b6000600560008473ffffffffffffffffffffffffffffffffffffffff1673ffffffffffffffffffffffffffffffffffffffff16815260200190815260200160002060008373ffffffffffffffffffffffffffffffffffffffff1673ffffffffffffffffffffffffffffffffffffffff16815260200190815260200160002060009054906101000a900460ff16905092915050565b610bf5611190565b600073ffffffffffffffffffffffffffffffffffffffff168173ffffffffffffffffffffffffffffffffffffffff1603610c64576040517f08c379a0000000000000000000000000000000000000000000000000000000008152600401610c5b90612677565b60405180910390fd5b610c6d8161120e565b50565b60007f01ffc9a7000000000000000000000000000000000000000000000000000000007bffffffffffffffffffffffffffffffffffffffffffffffffffffffff1916827bffffffffffffffffffffffffffffffffffffffffffffffffffffffff1916149050919050565b610ce3816115ae565b610d22576040517f08c379a0000000000000000000000000000000000000000000000000000000008152600401610d19906124e7565b60405180910390fd5b50565b600033905090565b816004600083815260200190815260200160002060006101000a81548173ffffffffffffffffffffffffffffffffffffffff021916908373ffffffffffffffffffffffffffffffffffffffff160217905550808273ffffffffffffffffffffffffffffffffffffffff16610da08361080a565b73ffffffffffffffffffffffffffffffffffffffff167f8c5be1e5ebec7d5bd14f71427d1e84f3dd0314c0f7b2291e5b200ac8c7c3b92560405160405180910390a45050565b600081600001549050919050565b6001816000016000828254019250508190555050565b610e2482826040518060200160405280600081525061161a565b5050565b610e31826115ae565b610e70576040517f08c379a0000000000000000000000000000000000000000000000000000000008152600401610e6790612709565b60405180910390fd5b80600660008481526020019081526020016000209081610e9091906128d5565b505050565b600080610ea18361080a565b90508073ffffffffffffffffffffffffffffffffffffffff168473ffffffffffffffffffffffffffffffffffffffff161480610ee35750610ee28185610b59565b5b80610f2157508373ffffffffffffffffffffffffffffffffffffffff16610f09846105f7565b73ffffffffffffffffffffffffffffffffffffffff16145b91505092915050565b8273ffffffffffffffffffffffffffffffffffffffff16610f4a8261080a565b73ffffffffffffffffffffffffffffffffffffffff1614610fa0576040517f08c379a0000000000000000000000000000000000000000000000000000000008152600401610f9790612a19565b60405180910390fd5b600073ffffffffffffffffffffffffffffffffffffffff168273ffffffffffffffffffffffffffffffffffffffff160361100f576040517f08c379a000000000000000000000000000000000000000000000000000000000815260040161100690612aab565b60405180910390fd5b61101a838383611675565b611025600082610d2d565b6001600360008573ffffffffffffffffffffffffffffffffffffffff1673ffffffffffffffffffffffffffffffffffffffff16815260200190815260200160002060008282546110759190612afa565b925050819055506001600360008473ffffffffffffffffffffffffffffffffffffffff1673ffffffffffffffffffffffffffffffffffffffff16815260200190815260200160002060008282546110cc9190612b2e565b92505081905550816002600083815260200190815260200160002060006101000a81548173ffffffffffffffffffffffffffffffffffffffff021916908373ffffffffffffffffffffffffffffffffffffffff160217905550808273ffffffffffffffffffffffffffffffffffffffff168473ffffffffffffffffffffffffffffffffffffffff167fddf252ad1be2c89b69c2b068fc378daa952ba7f163c4a11628f55a4df523b3ef60405160405180910390a461118b83838361167a565b505050565b611198610d25565b73ffffffffffffffffffffffffffffffffffffffff166111b6610a01565b73ffffffffffffffffffffffffffffffffffffffff161461120c576040517f08c379a000000000000000000000000000000000000000000000000000000000815260040161120390612bae565b60405180910390fd5b565b6000600760009054906101000a900473ffffffffffffffffffffffffffffffffffffffff16905081600760006101000a81548173ffffffffffffffffffffffffffffffffffffffff021916908373ffffffffffffffffffffffffffffffffffffffff1602179055508173ffffffffffffffffffffffffffffffffffffffff168173ffffffffffffffffffffffffffffffffffffffff167f8be0079c531659141344cd1fd0a4f28419497f9722a3daafe3b4186f6b6457e060405160405180910390a35050565b8173ffffffffffffffffffffffffffffffffffffffff168373ffffffffffffffffffffffffffffffffffffffff1603611342576040517f08c379a000000000000000000000000000000000000000000000000000000000815260040161133990612c1a565b60405180910390fd5b80600560008573ffffffffffffffffffffffffffffffffffffffff1673ffffffffffffffffffffffffffffffffffffffff16815260200190815260200160002060008473ffffffffffffffffffffffffffffffffffffffff1673ffffffffffffffffffffffffffffffffffffffff16815260200190815260200160002060006101000a81548160ff0219169083151502179055508173ffffffffffffffffffffffffffffffffffffffff168373ffffffffffffffffffffffffffffffffffffffff167f17307eab39ab6107e8899845ad3d59bd9653f200f220920489ca2b5937696c31836040516114339190611c95565b60405180910390a3505050565b61144b848484610f2a565b6114578484848461167f565b611496576040517f08c379a000000000000000000000000000000000000000000000000000000000815260040161148d90612cac565b60405180910390fd5b50505050565b60606114a782610cda565b60006006600084815260200190815260200160002080546114c7906122b4565b80601f01602080910402602001604051908101604052809291908181526020018280546114f3906122b4565b80156115405780601f1061151557610100808354040283529160200191611540565b820191906000526020600020905b81548152906001019060200180831161152357829003601f168201915b505050505090506000611551611806565b905060008151036115665781925050506115a9565b60008251111561159b578082604051602001611583929190612d08565b604051602081830303815290604052925050506115a9565b6115a48461181d565b925050505b919050565b60008073ffffffffffffffffffffffffffffffffffffffff166002600084815260200190815260200160002060009054906101000a900473ffffffffffffffffffffffffffffffffffffffff1673ffffffffffffffffffffffffffffffffffffffff1614159050919050565b6116248383611885565b611631600084848461167f565b611670576040517f08c379a000000000000000000000000000000000000000000000000000000000815260040161166790612cac565b60405180910390fd5b505050565b505050565b505050565b60006116a08473ffffffffffffffffffffffffffffffffffffffff16611a5e565b156117f9578373ffffffffffffffffffffffffffffffffffffffff1663150b7a026116c9610d25565b8786866040518563ffffffff1660e01b81526004016116eb9493929190612d81565b6020604051808303816000875af192505050801561172757506040513d601f19601f820116820180604052508101906117249190612de2565b60015b6117a9573d8060008114611757576040519150601f19603f3d011682016040523d82523d6000602084013e61175c565b606091505b5060008151036117a1576040517f08c379a000000000000000000000000000000000000000000000000000000000815260040161179890612cac565b60405180910390fd5b805181602001fd5b63150b7a0260e01b7bffffffffffffffffffffffffffffffffffffffffffffffffffffffff1916817bffffffffffffffffffffffffffffffffffffffffffffffffffffffff1916149150506117fe565b600190505b949350505050565b606060405180602001604052806000815250905090565b606061182882610cda565b6000611832611806565b90506000815111611852576040518060200160405280600081525061187d565b8061185c84611a81565b60405160200161186d929190612d08565b6040516020818303038152906040525b915050919050565b600073ffffffffffffffffffffffffffffffffffffffff168273ffffffffffffffffffffffffffffffffffffffff16036118f4576040517f08c379a00000000000000000000000000000000000000000000000000000000081526004016118eb90612e5b565b60405180910390fd5b6118fd816115ae565b1561193d576040517f08c379a000000000000000000000000000000000000000000000000000000000815260040161193490612ec7565b60405180910390fd5b61194960008383611675565b6001600360008473ffffffffffffffffffffffffffffffffffffffff1673ffffffffffffffffffffffffffffffffffffffff16815260200190815260200160002060008282546119999190612b2e565b92505081905550816002600083815260200190815260200160002060006101000a81548173ffffffffffffffffffffffffffffffffffffffff021916908373ffffffffffffffffffffffffffffffffffffffff160217905550808273ffffffffffffffffffffffffffffffffffffffff16600073ffffffffffffffffffffffffffffffffffffffff167fddf252ad1be2c89b69c2b068fc378daa952ba7f163c4a11628f55a4df523b3ef60405160405180910390a4611a5a6000838361167a565b5050565b6000808273ffffffffffffffffffffffffffffffffffffffff163b119050919050565b606060008203611ac8576040518060400160405280600181526020017f30000000000000000000000000000000000000000000000000000000000000008152509050611bdc565b600082905060005b60008214611afa578080611ae390612ee7565b915050600a82611af39190612f5e565b9150611ad0565b60008167ffffffffffffffff811115611b1657611b15611e97565b5b6040519080825280601f01601f191660200182016040528015611b485781602001600182028036833780820191505090505b5090505b60008514611bd557600182611b619190612afa565b9150600a85611b709190612f8f565b6030611b7c9190612b2e565b60f81b818381518110611b9257611b91612fc0565b5b60200101907effffffffffffffffffffffffffffffffffffffffffffffffffffffffffffff1916908160001a905350600a85611bce9190612f5e565b9450611b4c565b8093505050505b919050565b6000604051905090565b600080fd5b600080fd5b60007fffffffff0000000000000000000000000000000000000000000000000000000082169050919050565b611c2a81611bf5565b8114611c3557600080fd5b50565b600081359050611c4781611c21565b92915050565b600060208284031215611c6357611c62611beb565b5b6000611c7184828501611c38565b91505092915050565b60008115159050919050565b611c8f81611c7a565b82525050565b6000602082019050611caa6000830184611c86565b92915050565b600081519050919050565b600082825260208201905092915050565b60005b83811015611cea578082015181840152602081019050611ccf565b60008484015250505050565b6000601f19601f8301169050919050565b6000611d1282611cb0565b611d1c8185611cbb565b9350611d2c818560208601611ccc565b611d3581611cf6565b840191505092915050565b60006020820190508181036000830152611d5a8184611d07565b905092915050565b6000819050919050565b611d7581611d62565b8114611d8057600080fd5b50565b600081359050611d9281611d6c565b92915050565b600060208284031215611dae57611dad611beb565b5b6000611dbc84828501611d83565b91505092915050565b600073ffffffffffffffffffffffffffffffffffffffff82169050919050565b6000611df082611dc5565b9050919050565b611e0081611de5565b82525050565b6000602082019050611e1b6000830184611df7565b92915050565b611e2a81611de5565b8114611e3557600080fd5b50565b600081359050611e4781611e21565b92915050565b60008060408385031215611e6457611e63611beb565b5b6000611e7285828601611e38565b9250506020611e8385828601611d83565b9150509250929050565b600080fd5b600080fd5b7f4e487b7100000000000000000000000000000000000000000000000000000000600052604160045260246000fd5b611ecf82611cf6565b810181811067ffffffffffffffff82111715611eee57611eed611e97565b5b80604052505050565b6000611f01611be1565b9050611f0d8282611ec6565b919050565b600067ffffffffffffffff821115611f2d57611f2c611e97565b5b611f3682611cf6565b9050602081019050919050565b82818337600083830152505050565b6000611f65611f6084611f12565b611ef7565b905082815260208101848484011115611f8157611f80611e92565b5b611f8c848285611f43565b509392505050565b600082601f830112611fa957611fa8611e8d565b5b8135611fb9848260208601611f52565b91505092915050565b600060208284031215611fd857611fd7611beb565b5b600082013567ffffffffffffffff811115611ff657611ff5611bf0565b5b61200284828501611f94565b91505092915050565b60008060006060848603121561202457612023611beb565b5b600061203286828701611e38565b935050602061204386828701611e38565b925050604061205486828701611d83565b9150509250925092565b60006020828403121561207457612073611beb565b5b600061208284828501611e38565b91505092915050565b61209481611d62565b82525050565b60006020820190506120af600083018461208b565b92915050565b6120be81611c7a565b81146120c957600080fd5b50565b6000813590506120db816120b5565b92915050565b600080604083850312156120f8576120f7611beb565b5b600061210685828601611e38565b9250506020612117858286016120cc565b9150509250929050565b600067ffffffffffffffff82111561213c5761213b611e97565b5b61214582611cf6565b9050602081019050919050565b600061216561216084612121565b611ef7565b90508281526020810184848401111561218157612180611e92565b5b61218c848285611f43565b509392505050565b600082601f8301126121a9576121a8611e8d565b5b81356121b9848260208601612152565b91505092915050565b600080600080608085870312156121dc576121db611beb565b5b60006121ea87828801611e38565b94505060206121fb87828801611e38565b935050604061220c87828801611d83565b925050606085013567ffffffffffffffff81111561222d5761222c611bf0565b5b61223987828801612194565b91505092959194509250565b6000806040838503121561225c5761225b611beb565b5b600061226a85828601611e38565b925050602061227b85828601611e38565b9150509250929050565b7f4e487b7100000000000000000000000000000000000000000000000000000000600052602260045260246000fd5b600060028204905060018216806122cc57607f821691505b6020821081036122df576122de612285565b5b50919050565b7f4552433732313a20617070726f76616c20746f2063757272656e74206f776e6560008201527f7200000000000000000000000000000000000000000000000000000000000000602082015250565b6000612341602183611cbb565b915061234c826122e5565b604082019050919050565b6000602082019050818103600083015261237081612334565b9050919050565b7f4552433732313a20617070726f76652063616c6c6572206973206e6f7420746f60008201527f6b656e206f776e6572206e6f7220617070726f76656420666f7220616c6c0000602082015250565b60006123d3603e83611cbb565b91506123de82612377565b604082019050919050565b60006020820190508181036000830152612402816123c6565b9050919050565b7f4552433732313a2063616c6c6572206973206e6f7420746f6b656e206f776e6560008201527f72206e6f7220617070726f766564000000000000000000000000000000000000602082015250565b6000612465602e83611cbb565b915061247082612409565b604082019050919050565b6000602082019050818103600083015261249481612458565b9050919050565b7f4552433732313a20696e76616c696420746f6b656e2049440000000000000000600082015250565b60006124d1601883611cbb565b91506124dc8261249b565b602082019050919050565b60006020820190508181036000830152612500816124c4565b9050919050565b7f5061796d656e74206973206e6f7420656e6f7567682100000000000000000000600082015250565b600061253d601683611cbb565b915061254882612507565b602082019050919050565b6000602082019050818103600083015261256c81612530565b9050919050565b7f4552433732313a2061646472657373207a65726f206973206e6f74206120766160008201527f6c6964206f776e65720000000000000000000000000000000000000000000000602082015250565b60006125cf602983611cbb565b91506125da82612573565b604082019050919050565b600060208201905081810360008301526125fe816125c2565b9050919050565b7f4f776e61626c653a206e6577206f776e657220697320746865207a65726f206160008201527f6464726573730000000000000000000000000000000000000000000000000000602082015250565b6000612661602683611cbb565b915061266c82612605565b604082019050919050565b6000602082019050818103600083015261269081612654565b9050919050565b7f45524337323155524953746f726167653a2055524920736574206f66206e6f6e60008201527f6578697374656e7420746f6b656e000000000000000000000000000000000000602082015250565b60006126f3602e83611cbb565b91506126fe82612697565b604082019050919050565b60006020820190508181036000830152612722816126e6565b9050919050565b60008190508160005260206000209050919050565b60006020601f8301049050919050565b600082821b905092915050565b60006008830261278b7fffffffffffffffffffffffffffffffffffffffffffffffffffffffffffffffff8261274e565b612795868361274e565b95508019841693508086168417925050509392505050565b6000819050919050565b60006127d26127cd6127c884611d62565b6127ad565b611d62565b9050919050565b6000819050919050565b6127ec836127b7565b6128006127f8826127d9565b84845461275b565b825550505050565b600090565b612815612808565b6128208184846127e3565b505050565b5b818110156128445761283960008261280d565b600181019050612826565b5050565b601f8211156128895761285a81612729565b6128638461273e565b81016020851015612872578190505b61288661287e8561273e565b830182612825565b50505b505050565b600082821c905092915050565b60006128ac6000198460080261288e565b1980831691505092915050565b60006128c5838361289b565b9150826002028217905092915050565b6128de82611cb0565b67ffffffffffffffff8111156128f7576128f6611e97565b5b61290182546122b4565b61290c828285612848565b600060209050601f83116001811461293f576000841561292d578287015190505b61293785826128b9565b86555061299f565b601f19841661294d86612729565b60005b8281101561297557848901518255600182019150602085019450602081019050612950565b86831015612992578489015161298e601f89168261289b565b8355505b6001600288020188555050505b505050505050565b7f4552433732313a207472616e736665722066726f6d20696e636f72726563742060008201527f6f776e6572000000000000000000000000000000000000000000000000000000602082015250565b6000612a03602583611cbb565b9150612a0e826129a7565b604082019050919050565b60006020820190508181036000830152612a32816129f6565b9050919050565b7f4552433732313a207472616e7366657220746f20746865207a65726f2061646460008201527f7265737300000000000000000000000000000000000000000000000000000000602082015250565b6000612a95602483611cbb565b9150612aa082612a39565b604082019050919050565b60006020820190508181036000830152612ac481612a88565b9050919050565b7f4e487b7100000000000000000000000000000000000000000000000000000000600052601160045260246000fd5b6000612b0582611d62565b9150612b1083611d62565b9250828203905081811115612b2857612b27612acb565b5b92915050565b6000612b3982611d62565b9150612b4483611d62565b9250828201905080821115612b5c57612b5b612acb565b5b92915050565b7f4f776e61626c653a2063616c6c6572206973206e6f7420746865206f776e6572600082015250565b6000612b98602083611cbb565b9150612ba382612b62565b602082019050919050565b60006020820190508181036000830152612bc781612b8b565b9050919050565b7f4552433732313a20617070726f766520746f2063616c6c657200000000000000600082015250565b6000612c04601983611cbb565b9150612c0f82612bce565b602082019050919050565b60006020820190508181036000830152612c3381612bf7565b9050919050565b7f4552433732313a207472616e7366657220746f206e6f6e20455243373231526560008201527f63656976657220696d706c656d656e7465720000000000000000000000000000602082015250565b6000612c96603283611cbb565b9150612ca182612c3a565b604082019050919050565b60006020820190508181036000830152612cc581612c89565b9050919050565b600081905092915050565b6000612ce282611cb0565b612cec8185612ccc565b9350612cfc818560208601611ccc565b80840191505092915050565b6000612d148285612cd7565b9150612d208284612cd7565b91508190509392505050565b600081519050919050565b600082825260208201905092915050565b6000612d5382612d2c565b612d5d8185612d37565b9350612d6d818560208601611ccc565b612d7681611cf6565b840191505092915050565b6000608082019050612d966000830187611df7565b612da36020830186611df7565b612db0604083018561208b565b8181036060830152612dc28184612d48565b905095945050505050565b600081519050612ddc81611c21565b92915050565b600060208284031215612df857612df7611beb565b5b6000612e0684828501612dcd565b91505092915050565b7f4552433732313a206d696e7420746f20746865207a65726f2061646472657373600082015250565b6000612e45602083611cbb565b9150612e5082612e0f565b602082019050919050565b60006020820190508181036000830152612e7481612e38565b9050919050565b7f4552433732313a20746f6b656e20616c7265616479206d696e74656400000000600082015250565b6000612eb1601c83611cbb565b9150612ebc82612e7b565b602082019050919050565b60006020820190508181036000830152612ee081612ea4565b9050919050565b6000612ef282611d62565b91507fffffffffffffffffffffffffffffffffffffffffffffffffffffffffffffffff8203612f2457612f23612acb565b5b600182019050919050565b7f4e487b7100000000000000000000000000000000000000000000000000000000600052601260045260246000fd5b6000612f6982611d62565b9150612f7483611d62565b925082612f8457612f83612f2f565b5b828204905092915050565b6000612f9a82611d62565b9150612fa583611d62565b925082612fb557612fb4612f2f565b5b828206905092915050565b7f4e487b7100000000000000000000000000000000000000000000000000000000600052603260045260246000fdfea2646970667358221220a1f23c2c148d8531e5755b57c4b332df9f4e32c153319bb1b8eb15a24cfce23464736f6c63430008110033",
  "linkReferences": {},
  "deployedLinkReferences": {}
}