{
  "_format": "hh-sol-artifact-1",
  "contractName": "ANZNScore",
  "sourceName": "contracts/ANZNScore.sol",
  "abi": [
    {
      "inputs": [],
      "stateMutability": "nonpayable",
      "type": "constructor"
    },
    {
      "anonymous": false,
      "inputs": [
        {
          "indexed": true,
          "internalType": "address",
          "name": "owner",
          "type": "address"
        },
        {
          "indexed": true,
          "internalType": "address",
          "name": "approved",
          "type": "address"
        },
        {
          "indexed": true,
          "internalType": "uint256",
          "name": "tokenId",
          "type": "uint256"
        }
      ],
      "name": "Approval",
      "type": "event"
    },
    {
      "anonymous": false,
      "inputs": [
        {
          "indexed": true,
          "internalType": "address",
          "name": "owner",
          "type": "address"
        },
        {
          "indexed": true,
          "internalType": "address",
          "name": "operator",
          "type": "address"
        },
        {
          "indexed": false,
          "internalType": "bool",
          "name": "approved",
          "type": "bool"
        }
      ],
      "name": "ApprovalForAll",
      "type": "event"
    },
    {
      "anonymous": false,
      "inputs": [
        {
          "indexed": true,
          "internalType": "address",
          "name": "previousOwner",
          "type": "address"
        },
        {
          "indexed": true,
          "internalType": "address",
          "name": "newOwner",
          "type": "address"
        }
      ],
      "name": "OwnershipTransferred",
      "type": "event"
    },
    {
      "anonymous": false,
      "inputs": [
        {
          "indexed": true,
          "internalType": "address",
          "name": "from",
          "type": "address"
        },
        {
          "indexed": true,
          "internalType": "address",
          "name": "to",
          "type": "address"
        },
        {
          "indexed": true,
          "internalType": "uint256",
          "name": "tokenId",
          "type": "uint256"
        }
      ],
      "name": "Transfer",
      "type": "event"
    },
    {
      "inputs": [
        {
          "internalType": "uint256",
          "name": "amount",
          "type": "uint256"
        }
      ],
      "name": "addAnzn",
      "outputs": [],
      "stateMutability": "nonpayable",
      "type": "function"
    },
    {
      "inputs": [
        {
          "internalType": "address",
          "name": "to",
          "type": "address"
        },
        {
          "internalType": "uint256",
          "name": "amount",
          "type": "uint256"
        }
      ],
      "name": "addAnznTo",
      "outputs": [],
      "stateMutability": "nonpayable",
      "type": "function"
    },
    {
      "inputs": [
        {
          "internalType": "address",
          "name": "to",
          "type": "address"
        },
        {
          "internalType": "uint256",
          "name": "tokenId",
          "type": "uint256"
        }
      ],
      "name": "approve",
      "outputs": [],
      "stateMutability": "nonpayable",
      "type": "function"
    },
    {
      "inputs": [
        {
          "internalType": "address",
          "name": "owner",
          "type": "address"
        }
      ],
      "name": "balanceOf",
      "outputs": [
        {
          "internalType": "uint256",
          "name": "",
          "type": "uint256"
        }
      ],
      "stateMutability": "view",
      "type": "function"
    },
    {
      "inputs": [
        {
          "internalType": "address",
          "name": "user",
          "type": "address"
        }
      ],
      "name": "getAnznBalanceOf",
      "outputs": [
        {
          "internalType": "uint256",
          "name": "",
          "type": "uint256"
        }
      ],
      "stateMutability": "view",
      "type": "function"
    },
    {
      "inputs": [
        {
          "internalType": "uint256",
          "name": "tokenId",
          "type": "uint256"
        }
      ],
      "name": "getApproved",
      "outputs": [
        {
          "internalType": "address",
          "name": "",
          "type": "address"
        }
      ],
      "stateMutability": "view",
      "type": "function"
    },
    {
      "inputs": [
        {
          "internalType": "address",
          "name": "owner",
          "type": "address"
        },
        {
          "internalType": "address",
          "name": "operator",
          "type": "address"
        }
      ],
      "name": "isApprovedForAll",
      "outputs": [
        {
          "internalType": "bool",
          "name": "",
          "type": "bool"
        }
      ],
      "stateMutability": "view",
      "type": "function"
    },
    {
      "inputs": [],
      "name": "mint",
      "outputs": [],
      "stateMutability": "nonpayable",
      "type": "function"
    },
    {
      "inputs": [
        {
          "internalType": "address",
          "name": "to",
          "type": "address"
        },
        {
          "internalType": "uint256",
          "name": "amount",
          "type": "uint256"
        }
      ],
      "name": "mintToWithAmount",
      "outputs": [],
      "stateMutability": "nonpayable",
      "type": "function"
    },
    {
      "inputs": [],
      "name": "name",
      "outputs": [
        {
          "internalType": "string",
          "name": "",
          "type": "string"
        }
      ],
      "stateMutability": "view",
      "type": "function"
    },
    {
      "inputs": [],
      "name": "owner",
      "outputs": [
        {
          "internalType": "address",
          "name": "",
          "type": "address"
        }
      ],
      "stateMutability": "view",
      "type": "function"
    },
    {
      "inputs": [
        {
          "internalType": "uint256",
          "name": "tokenId",
          "type": "uint256"
        }
      ],
      "name": "ownerOf",
      "outputs": [
        {
          "internalType": "address",
          "name": "",
          "type": "address"
        }
      ],
      "stateMutability": "view",
      "type": "function"
    },
    {
      "inputs": [],
      "name": "renounceOwnership",
      "outputs": [],
      "stateMutability": "nonpayable",
      "type": "function"
    },
    {
      "inputs": [
        {
          "internalType": "address",
          "name": "from",
          "type": "address"
        },
        {
          "internalType": "address",
          "name": "to",
          "type": "address"
        },
        {
          "internalType": "uint256",
          "name": "tokenId",
          "type": "uint256"
        }
      ],
      "name": "safeTransferFrom",
      "outputs": [],
      "stateMutability": "nonpayable",
      "type": "function"
    },
    {
      "inputs": [
        {
          "internalType": "address",
          "name": "from",
          "type": "address"
        },
        {
          "internalType": "address",
          "name": "to",
          "type": "address"
        },
        {
          "internalType": "uint256",
          "name": "tokenId",
          "type": "uint256"
        },
        {
          "internalType": "bytes",
          "name": "data",
          "type": "bytes"
        }
      ],
      "name": "safeTransferFrom",
      "outputs": [],
      "stateMutability": "nonpayable",
      "type": "function"
    },
    {
      "inputs": [
        {
          "internalType": "address",
          "name": "operator",
          "type": "address"
        },
        {
          "internalType": "bool",
          "name": "approved",
          "type": "bool"
        }
      ],
      "name": "setApprovalForAll",
      "outputs": [],
      "stateMutability": "nonpayable",
      "type": "function"
    },
    {
      "inputs": [
        {
          "internalType": "bytes4",
          "name": "interfaceId",
          "type": "bytes4"
        }
      ],
      "name": "supportsInterface",
      "outputs": [
        {
          "internalType": "bool",
          "name": "",
          "type": "bool"
        }
      ],
      "stateMutability": "view",
      "type": "function"
    },
    {
      "inputs": [],
      "name": "symbol",
      "outputs": [
        {
          "internalType": "string",
          "name": "",
          "type": "string"
        }
      ],
      "stateMutability": "view",
      "type": "function"
    },
    {
      "inputs": [
        {
          "internalType": "uint256",
          "name": "tokenId",
          "type": "uint256"
        }
      ],
      "name": "tokenURI",
      "outputs": [
        {
          "internalType": "string",
          "name": "",
          "type": "string"
        }
      ],
      "stateMutability": "view",
      "type": "function"
    },
    {
      "inputs": [
        {
          "internalType": "address",
          "name": "from",
          "type": "address"
        },
        {
          "internalType": "address",
          "name": "to",
          "type": "address"
        },
        {
          "internalType": "uint256",
          "name": "tokenId",
          "type": "uint256"
        }
      ],
      "name": "transferFrom",
      "outputs": [],
      "stateMutability": "nonpayable",
      "type": "function"
    },
    {
      "inputs": [
        {
          "internalType": "address",
          "name": "newOwner",
          "type": "address"
        }
      ],
      "name": "transferOwnership",
      "outputs": [],
      "stateMutability": "nonpayable",
      "type": "function"
    }
  ],
  "bytecode": "0x60806040523480156200001157600080fd5b506040518060400160405280600981526020017f414e5a4e53636f726500000000000000000000000000000000000000000000008152506040518060400160405280600481526020017f414e5a4e0000000000000000000000000000000000000000000000000000000081525081600090816200008f919062000412565b508060019081620000a1919062000412565b505050620000c4620000b8620000ca60201b60201c565b620000d260201b60201c565b620004f9565b600033905090565b6000600660009054906101000a900473ffffffffffffffffffffffffffffffffffffffff16905081600660006101000a81548173ffffffffffffffffffffffffffffffffffffffff021916908373ffffffffffffffffffffffffffffffffffffffff1602179055508173ffffffffffffffffffffffffffffffffffffffff168173ffffffffffffffffffffffffffffffffffffffff167f8be0079c531659141344cd1fd0a4f28419497f9722a3daafe3b4186f6b6457e060405160405180910390a35050565b600081519050919050565b7f4e487b7100000000000000000000000000000000000000000000000000000000600052604160045260246000fd5b7f4e487b7100000000000000000000000000000000000000000000000000000000600052602260045260246000fd5b600060028204905060018216806200021a57607f821691505b60208210810362000230576200022f620001d2565b5b50919050565b60008190508160005260206000209050919050565b60006020601f8301049050919050565b600082821b905092915050565b6000600883026200029a7fffffffffffffffffffffffffffffffffffffffffffffffffffffffffffffffff826200025b565b620002a686836200025b565b95508019841693508086168417925050509392505050565b6000819050919050565b6000819050919050565b6000620002f3620002ed620002e784620002be565b620002c8565b620002be565b9050919050565b6000819050919050565b6200030f83620002d2565b620003276200031e82620002fa565b84845462000268565b825550505050565b600090565b6200033e6200032f565b6200034b81848462000304565b505050565b5b8181101562000373576200036760008262000334565b60018101905062000351565b5050565b601f821115620003c2576200038c8162000236565b62000397846200024b565b81016020851015620003a7578190505b620003bf620003b6856200024b565b83018262000350565b50505b505050565b600082821c905092915050565b6000620003e760001984600802620003c7565b1980831691505092915050565b6000620004028383620003d4565b9150826002028217905092915050565b6200041d8262000198565b67ffffffffffffffff811115620004395762000438620001a3565b5b62000445825462000201565b6200045282828562000377565b600060209050601f8311600181146200048a576000841562000475578287015190505b620004818582620003f4565b865550620004f1565b601f1984166200049a8662000236565b60005b82811015620004c4578489015182556001820191506020850194506020810190506200049d565b86831015620004e45784890151620004e0601f891682620003d4565b8355505b6001600288020188555050505b505050505050565b612d5980620005096000396000f3fe608060405234801561001057600080fd5b50600436106101375760003560e01c806370a08231116100b857806395d89b411161007c57806395d89b4114610324578063a22cb46514610342578063b88d4fde1461035e578063c87b56dd1461037a578063e985e9c5146103aa578063f2fde38b146103da57610137565b806370a0823114610294578063715018a6146102c45780638da5cb5b146102ce5780638f48d475146102ec57806390a6c5081461030857610137565b806323b872dd116100ff57806323b872dd146101e057806342842e0e146101fc57806348c22a51146102185780636352211e14610248578063663200a41461027857610137565b806301ffc9a71461013c57806306fdde031461016c578063081812fc1461018a578063095ea7b3146101ba5780631249c58b146101d6575b600080fd5b61015660048036038101906101519190611c57565b6103f6565b6040516101639190611c9f565b60405180910390f35b6101746104d8565b6040516101819190611d4a565b60405180910390f35b6101a4600480360381019061019f9190611da2565b61056a565b6040516101b19190611e10565b60405180910390f35b6101d460048036038101906101cf9190611e57565b6105b0565b005b6101de6106c7565b005b6101fa60048036038101906101f59190611e97565b61071f565b005b61021660048036038101906102119190611e97565b61077f565b005b610232600480360381019061022d9190611eea565b61079f565b60405161023f9190611f26565b60405180910390f35b610262600480360381019061025d9190611da2565b6107fb565b60405161026f9190611e10565b60405180910390f35b610292600480360381019061028d9190611e57565b6108ac565b005b6102ae60048036038101906102a99190611eea565b61097a565b6040516102bb9190611f26565b60405180910390f35b6102cc610a31565b005b6102d6610a45565b6040516102e39190611e10565b60405180910390f35b61030660048036038101906103019190611da2565b610a6f565b005b610322600480360381019061031d9190611e57565b610b28565b005b61032c610be2565b6040516103399190611d4a565b60405180910390f35b61035c60048036038101906103579190611f6d565b610c74565b005b610378600480360381019061037391906120e2565b610c8a565b005b610394600480360381019061038f9190611da2565b610cec565b6040516103a19190611d4a565b60405180910390f35b6103c460048036038101906103bf9190612165565b610d54565b6040516103d19190611c9f565b60405180910390f35b6103f460048036038101906103ef9190611eea565b610de8565b005b60007f80ac58cd000000000000000000000000000000000000000000000000000000007bffffffffffffffffffffffffffffffffffffffffffffffffffffffff1916827bffffffffffffffffffffffffffffffffffffffffffffffffffffffff191614806104c157507f5b5e139f000000000000000000000000000000000000000000000000000000007bffffffffffffffffffffffffffffffffffffffffffffffffffffffff1916827bffffffffffffffffffffffffffffffffffffffffffffffffffffffff1916145b806104d157506104d082610e6b565b5b9050919050565b6060600080546104e7906121d4565b80601f0160208091040260200160405190810160405280929190818152602001828054610513906121d4565b80156105605780601f1061053557610100808354040283529160200191610560565b820191906000526020600020905b81548152906001019060200180831161054357829003601f168201915b5050505050905090565b600061057582610ed5565b6004600083815260200190815260200160002060009054906101000a900473ffffffffffffffffffffffffffffffffffffffff169050919050565b60006105bb826107fb565b90508073ffffffffffffffffffffffffffffffffffffffff168373ffffffffffffffffffffffffffffffffffffffff160361062b576040517f08c379a000000000000000000000000000000000000000000000000000000000815260040161062290612277565b60405180910390fd5b8073ffffffffffffffffffffffffffffffffffffffff1661064a610f20565b73ffffffffffffffffffffffffffffffffffffffff161480610679575061067881610673610f20565b610d54565b5b6106b8576040517f08c379a00000000000000000000000000000000000000000000000000000000081526004016106af90612309565b60405180910390fd5b6106c28383610f28565b505050565b60016106d23361097a565b10610712576040517f08c379a00000000000000000000000000000000000000000000000000000000081526004016107099061239b565b60405180910390fd5b61071d3360006108ac565b565b61073061072a610f20565b82610fe1565b61076f576040517f08c379a00000000000000000000000000000000000000000000000000000000081526004016107669061242d565b60405180910390fd5b61077a838383611076565b505050565b61079a83838360405180602001604052806000815250610c8a565b505050565b600060086000600960008573ffffffffffffffffffffffffffffffffffffffff1673ffffffffffffffffffffffffffffffffffffffff168152602001908152602001600020548152602001908152602001600020549050919050565b6000806002600084815260200190815260200160002060009054906101000a900473ffffffffffffffffffffffffffffffffffffffff169050600073ffffffffffffffffffffffffffffffffffffffff168173ffffffffffffffffffffffffffffffffffffffff16036108a3576040517f08c379a000000000000000000000000000000000000000000000000000000000815260040161089a90612499565b60405180910390fd5b80915050919050565b60016108b78361097a565b106108f7576040517f08c379a00000000000000000000000000000000000000000000000000000000081526004016108ee9061239b565b60405180910390fd5b600061090360076112dc565b905061090f83826112ea565b80600960008573ffffffffffffffffffffffffffffffffffffffff1673ffffffffffffffffffffffffffffffffffffffff1681526020019081526020016000208190555081600860008381526020019081526020016000208190555061097560076114c3565b505050565b60008073ffffffffffffffffffffffffffffffffffffffff168273ffffffffffffffffffffffffffffffffffffffff16036109ea576040517f08c379a00000000000000000000000000000000000000000000000000000000081526004016109e19061252b565b60405180910390fd5b600360008373ffffffffffffffffffffffffffffffffffffffff1673ffffffffffffffffffffffffffffffffffffffff168152602001908152602001600020549050919050565b610a396114d9565b610a436000611557565b565b6000600660009054906101000a900473ffffffffffffffffffffffffffffffffffffffff16905090565b336000610a7b8261097a565b11610abb576040517f08c379a0000000000000000000000000000000000000000000000000000000008152600401610ab2906125bd565b60405180910390fd5b8160086000600960003373ffffffffffffffffffffffffffffffffffffffff1673ffffffffffffffffffffffffffffffffffffffff1681526020019081526020016000205481526020019081526020016000206000828254610b1d919061260c565b925050819055505050565b816000610b348261097a565b11610b74576040517f08c379a0000000000000000000000000000000000000000000000000000000008152600401610b6b906125bd565b60405180910390fd5b8160086000600960008773ffffffffffffffffffffffffffffffffffffffff1673ffffffffffffffffffffffffffffffffffffffff1681526020019081526020016000205481526020019081526020016000206000828254610bd6919061260c565b92505081905550505050565b606060018054610bf1906121d4565b80601f0160208091040260200160405190810160405280929190818152602001828054610c1d906121d4565b8015610c6a5780601f10610c3f57610100808354040283529160200191610c6a565b820191906000526020600020905b815481529060010190602001808311610c4d57829003601f168201915b5050505050905090565b610c86610c7f610f20565b838361161d565b5050565b610c9b610c95610f20565b83610fe1565b610cda576040517f08c379a0000000000000000000000000000000000000000000000000000000008152600401610cd19061242d565b60405180910390fd5b610ce684848484611789565b50505050565b6060610cf782610ed5565b6000610d016117e5565b90506000815111610d215760405180602001604052806000815250610d4c565b80610d2b846117fc565b604051602001610d3c92919061267c565b6040516020818303038152906040525b915050919050565b6000600560008473ffffffffffffffffffffffffffffffffffffffff1673ffffffffffffffffffffffffffffffffffffffff16815260200190815260200160002060008373ffffffffffffffffffffffffffffffffffffffff1673ffffffffffffffffffffffffffffffffffffffff16815260200190815260200160002060009054906101000a900460ff16905092915050565b610df06114d9565b600073ffffffffffffffffffffffffffffffffffffffff168173ffffffffffffffffffffffffffffffffffffffff1603610e5f576040517f08c379a0000000000000000000000000000000000000000000000000000000008152600401610e5690612712565b60405180910390fd5b610e6881611557565b50565b60007f01ffc9a7000000000000000000000000000000000000000000000000000000007bffffffffffffffffffffffffffffffffffffffffffffffffffffffff1916827bffffffffffffffffffffffffffffffffffffffffffffffffffffffff1916149050919050565b610ede8161195c565b610f1d576040517f08c379a0000000000000000000000000000000000000000000000000000000008152600401610f1490612499565b60405180910390fd5b50565b600033905090565b816004600083815260200190815260200160002060006101000a81548173ffffffffffffffffffffffffffffffffffffffff021916908373ffffffffffffffffffffffffffffffffffffffff160217905550808273ffffffffffffffffffffffffffffffffffffffff16610f9b836107fb565b73ffffffffffffffffffffffffffffffffffffffff167f8c5be1e5ebec7d5bd14f71427d1e84f3dd0314c0f7b2291e5b200ac8c7c3b92560405160405180910390a45050565b600080610fed836107fb565b90508073ffffffffffffffffffffffffffffffffffffffff168473ffffffffffffffffffffffffffffffffffffffff16148061102f575061102e8185610d54565b5b8061106d57508373ffffffffffffffffffffffffffffffffffffffff166110558461056a565b73ffffffffffffffffffffffffffffffffffffffff16145b91505092915050565b8273ffffffffffffffffffffffffffffffffffffffff16611096826107fb565b73ffffffffffffffffffffffffffffffffffffffff16146110ec576040517f08c379a00000000000000000000000000000000000000000000000000000000081526004016110e3906127a4565b60405180910390fd5b600073ffffffffffffffffffffffffffffffffffffffff168273ffffffffffffffffffffffffffffffffffffffff160361115b576040517f08c379a000000000000000000000000000000000000000000000000000000000815260040161115290612836565b60405180910390fd5b6111668383836119c8565b611171600082610f28565b6001600360008573ffffffffffffffffffffffffffffffffffffffff1673ffffffffffffffffffffffffffffffffffffffff16815260200190815260200160002060008282546111c19190612856565b925050819055506001600360008473ffffffffffffffffffffffffffffffffffffffff1673ffffffffffffffffffffffffffffffffffffffff1681526020019081526020016000206000828254611218919061260c565b92505081905550816002600083815260200190815260200160002060006101000a81548173ffffffffffffffffffffffffffffffffffffffff021916908373ffffffffffffffffffffffffffffffffffffffff160217905550808273ffffffffffffffffffffffffffffffffffffffff168473ffffffffffffffffffffffffffffffffffffffff167fddf252ad1be2c89b69c2b068fc378daa952ba7f163c4a11628f55a4df523b3ef60405160405180910390a46112d7838383611a3c565b505050565b600081600001549050919050565b600073ffffffffffffffffffffffffffffffffffffffff168273ffffffffffffffffffffffffffffffffffffffff1603611359576040517f08c379a0000000000000000000000000000000000000000000000000000000008152600401611350906128d6565b60405180910390fd5b6113628161195c565b156113a2576040517f08c379a000000000000000000000000000000000000000000000000000000000815260040161139990612942565b60405180910390fd5b6113ae600083836119c8565b6001600360008473ffffffffffffffffffffffffffffffffffffffff1673ffffffffffffffffffffffffffffffffffffffff16815260200190815260200160002060008282546113fe919061260c565b92505081905550816002600083815260200190815260200160002060006101000a81548173ffffffffffffffffffffffffffffffffffffffff021916908373ffffffffffffffffffffffffffffffffffffffff160217905550808273ffffffffffffffffffffffffffffffffffffffff16600073ffffffffffffffffffffffffffffffffffffffff167fddf252ad1be2c89b69c2b068fc378daa952ba7f163c4a11628f55a4df523b3ef60405160405180910390a46114bf60008383611a3c565b5050565b6001816000016000828254019250508190555050565b6114e1610f20565b73ffffffffffffffffffffffffffffffffffffffff166114ff610a45565b73ffffffffffffffffffffffffffffffffffffffff1614611555576040517f08c379a000000000000000000000000000000000000000000000000000000000815260040161154c906129ae565b60405180910390fd5b565b6000600660009054906101000a900473ffffffffffffffffffffffffffffffffffffffff16905081600660006101000a81548173ffffffffffffffffffffffffffffffffffffffff021916908373ffffffffffffffffffffffffffffffffffffffff1602179055508173ffffffffffffffffffffffffffffffffffffffff168173ffffffffffffffffffffffffffffffffffffffff167f8be0079c531659141344cd1fd0a4f28419497f9722a3daafe3b4186f6b6457e060405160405180910390a35050565b8173ffffffffffffffffffffffffffffffffffffffff168373ffffffffffffffffffffffffffffffffffffffff160361168b576040517f08c379a000000000000000000000000000000000000000000000000000000000815260040161168290612a1a565b60405180910390fd5b80600560008573ffffffffffffffffffffffffffffffffffffffff1673ffffffffffffffffffffffffffffffffffffffff16815260200190815260200160002060008473ffffffffffffffffffffffffffffffffffffffff1673ffffffffffffffffffffffffffffffffffffffff16815260200190815260200160002060006101000a81548160ff0219169083151502179055508173ffffffffffffffffffffffffffffffffffffffff168373ffffffffffffffffffffffffffffffffffffffff167f17307eab39ab6107e8899845ad3d59bd9653f200f220920489ca2b5937696c318360405161177c9190611c9f565b60405180910390a3505050565b611794848484611076565b6117a084848484611a41565b6117df576040517f08c379a00000000000000000000000000000000000000000000000000000000081526004016117d690612aac565b60405180910390fd5b50505050565b606060405180602001604052806000815250905090565b606060008203611843576040518060400160405280600181526020017f30000000000000000000000000000000000000000000000000000000000000008152509050611957565b600082905060005b6000821461187557808061185e90612acc565b915050600a8261186e9190612b43565b915061184b565b60008167ffffffffffffffff81111561189157611890611fb7565b5b6040519080825280601f01601f1916602001820160405280156118c35781602001600182028036833780820191505090505b5090505b60008514611950576001826118dc9190612856565b9150600a856118eb9190612b74565b60306118f7919061260c565b60f81b81838151811061190d5761190c612ba5565b5b60200101907effffffffffffffffffffffffffffffffffffffffffffffffffffffffffffff1916908160001a905350600a856119499190612b43565b94506118c7565b8093505050505b919050565b60008073ffffffffffffffffffffffffffffffffffffffff166002600084815260200190815260200160002060009054906101000a900473ffffffffffffffffffffffffffffffffffffffff1673ffffffffffffffffffffffffffffffffffffffff1614159050919050565b600073ffffffffffffffffffffffffffffffffffffffff168373ffffffffffffffffffffffffffffffffffffffff1614611a37576040517f08c379a0000000000000000000000000000000000000000000000000000000008152600401611a2e90612c20565b60405180910390fd5b505050565b505050565b6000611a628473ffffffffffffffffffffffffffffffffffffffff16611bc8565b15611bbb578373ffffffffffffffffffffffffffffffffffffffff1663150b7a02611a8b610f20565b8786866040518563ffffffff1660e01b8152600401611aad9493929190612c95565b6020604051808303816000875af1925050508015611ae957506040513d601f19601f82011682018060405250810190611ae69190612cf6565b60015b611b6b573d8060008114611b19576040519150601f19603f3d011682016040523d82523d6000602084013e611b1e565b606091505b506000815103611b63576040517f08c379a0000000000000000000000000000000000000000000000000000000008152600401611b5a90612aac565b60405180910390fd5b805181602001fd5b63150b7a0260e01b7bffffffffffffffffffffffffffffffffffffffffffffffffffffffff1916817bffffffffffffffffffffffffffffffffffffffffffffffffffffffff191614915050611bc0565b600190505b949350505050565b6000808273ffffffffffffffffffffffffffffffffffffffff163b119050919050565b6000604051905090565b600080fd5b600080fd5b60007fffffffff0000000000000000000000000000000000000000000000000000000082169050919050565b611c3481611bff565b8114611c3f57600080fd5b50565b600081359050611c5181611c2b565b92915050565b600060208284031215611c6d57611c6c611bf5565b5b6000611c7b84828501611c42565b91505092915050565b60008115159050919050565b611c9981611c84565b82525050565b6000602082019050611cb46000830184611c90565b92915050565b600081519050919050565b600082825260208201905092915050565b60005b83811015611cf4578082015181840152602081019050611cd9565b60008484015250505050565b6000601f19601f8301169050919050565b6000611d1c82611cba565b611d268185611cc5565b9350611d36818560208601611cd6565b611d3f81611d00565b840191505092915050565b60006020820190508181036000830152611d648184611d11565b905092915050565b6000819050919050565b611d7f81611d6c565b8114611d8a57600080fd5b50565b600081359050611d9c81611d76565b92915050565b600060208284031215611db857611db7611bf5565b5b6000611dc684828501611d8d565b91505092915050565b600073ffffffffffffffffffffffffffffffffffffffff82169050919050565b6000611dfa82611dcf565b9050919050565b611e0a81611def565b82525050565b6000602082019050611e256000830184611e01565b92915050565b611e3481611def565b8114611e3f57600080fd5b50565b600081359050611e5181611e2b565b92915050565b60008060408385031215611e6e57611e6d611bf5565b5b6000611e7c85828601611e42565b9250506020611e8d85828601611d8d565b9150509250929050565b600080600060608486031215611eb057611eaf611bf5565b5b6000611ebe86828701611e42565b9350506020611ecf86828701611e42565b9250506040611ee086828701611d8d565b9150509250925092565b600060208284031215611f0057611eff611bf5565b5b6000611f0e84828501611e42565b91505092915050565b611f2081611d6c565b82525050565b6000602082019050611f3b6000830184611f17565b92915050565b611f4a81611c84565b8114611f5557600080fd5b50565b600081359050611f6781611f41565b92915050565b60008060408385031215611f8457611f83611bf5565b5b6000611f9285828601611e42565b9250506020611fa385828601611f58565b9150509250929050565b600080fd5b600080fd5b7f4e487b7100000000000000000000000000000000000000000000000000000000600052604160045260246000fd5b611fef82611d00565b810181811067ffffffffffffffff8211171561200e5761200d611fb7565b5b80604052505050565b6000612021611beb565b905061202d8282611fe6565b919050565b600067ffffffffffffffff82111561204d5761204c611fb7565b5b61205682611d00565b9050602081019050919050565b82818337600083830152505050565b600061208561208084612032565b612017565b9050828152602081018484840111156120a1576120a0611fb2565b5b6120ac848285612063565b509392505050565b600082601f8301126120c9576120c8611fad565b5b81356120d9848260208601612072565b91505092915050565b600080600080608085870312156120fc576120fb611bf5565b5b600061210a87828801611e42565b945050602061211b87828801611e42565b935050604061212c87828801611d8d565b925050606085013567ffffffffffffffff81111561214d5761214c611bfa565b5b612159878288016120b4565b91505092959194509250565b6000806040838503121561217c5761217b611bf5565b5b600061218a85828601611e42565b925050602061219b85828601611e42565b9150509250929050565b7f4e487b7100000000000000000000000000000000000000000000000000000000600052602260045260246000fd5b600060028204905060018216806121ec57607f821691505b6020821081036121ff576121fe6121a5565b5b50919050565b7f4552433732313a20617070726f76616c20746f2063757272656e74206f776e6560008201527f7200000000000000000000000000000000000000000000000000000000000000602082015250565b6000612261602183611cc5565b915061226c82612205565b604082019050919050565b6000602082019050818103600083015261229081612254565b9050919050565b7f4552433732313a20617070726f76652063616c6c6572206973206e6f7420746f60008201527f6b656e206f776e6572206e6f7220617070726f76656420666f7220616c6c0000602082015250565b60006122f3603e83611cc5565b91506122fe82612297565b604082019050919050565b60006020820190508181036000830152612322816122e6565b9050919050565b7f596f7520616c7265616479206861766520796f757220414e5a4e2077616c6c6560008201527f7421000000000000000000000000000000000000000000000000000000000000602082015250565b6000612385602283611cc5565b915061239082612329565b604082019050919050565b600060208201905081810360008301526123b481612378565b9050919050565b7f4552433732313a2063616c6c6572206973206e6f7420746f6b656e206f776e6560008201527f72206e6f7220617070726f766564000000000000000000000000000000000000602082015250565b6000612417602e83611cc5565b9150612422826123bb565b604082019050919050565b600060208201905081810360008301526124468161240a565b9050919050565b7f4552433732313a20696e76616c696420746f6b656e2049440000000000000000600082015250565b6000612483601883611cc5565b915061248e8261244d565b602082019050919050565b600060208201905081810360008301526124b281612476565b9050919050565b7f4552433732313a2061646472657373207a65726f206973206e6f74206120766160008201527f6c6964206f776e65720000000000000000000000000000000000000000000000602082015250565b6000612515602983611cc5565b9150612520826124b9565b604082019050919050565b6000602082019050818103600083015261254481612508565b9050919050565b7f596f7520646f206e6f74206861766520616e20414e5a4e2077616c6c6574207960008201527f65742e204d696e74206f6e652066697273742e00000000000000000000000000602082015250565b60006125a7603383611cc5565b91506125b28261254b565b604082019050919050565b600060208201905081810360008301526125d68161259a565b9050919050565b7f4e487b7100000000000000000000000000000000000000000000000000000000600052601160045260246000fd5b600061261782611d6c565b915061262283611d6c565b925082820190508082111561263a576126396125dd565b5b92915050565b600081905092915050565b600061265682611cba565b6126608185612640565b9350612670818560208601611cd6565b80840191505092915050565b6000612688828561264b565b9150612694828461264b565b91508190509392505050565b7f4f776e61626c653a206e6577206f776e657220697320746865207a65726f206160008201527f6464726573730000000000000000000000000000000000000000000000000000602082015250565b60006126fc602683611cc5565b9150612707826126a0565b604082019050919050565b6000602082019050818103600083015261272b816126ef565b9050919050565b7f4552433732313a207472616e736665722066726f6d20696e636f72726563742060008201527f6f776e6572000000000000000000000000000000000000000000000000000000602082015250565b600061278e602583611cc5565b915061279982612732565b604082019050919050565b600060208201905081810360008301526127bd81612781565b9050919050565b7f4552433732313a207472616e7366657220746f20746865207a65726f2061646460008201527f7265737300000000000000000000000000000000000000000000000000000000602082015250565b6000612820602483611cc5565b915061282b826127c4565b604082019050919050565b6000602082019050818103600083015261284f81612813565b9050919050565b600061286182611d6c565b915061286c83611d6c565b9250828203905081811115612884576128836125dd565b5b92915050565b7f4552433732313a206d696e7420746f20746865207a65726f2061646472657373600082015250565b60006128c0602083611cc5565b91506128cb8261288a565b602082019050919050565b600060208201905081810360008301526128ef816128b3565b9050919050565b7f4552433732313a20746f6b656e20616c7265616479206d696e74656400000000600082015250565b600061292c601c83611cc5565b9150612937826128f6565b602082019050919050565b6000602082019050818103600083015261295b8161291f565b9050919050565b7f4f776e61626c653a2063616c6c6572206973206e6f7420746865206f776e6572600082015250565b6000612998602083611cc5565b91506129a382612962565b602082019050919050565b600060208201905081810360008301526129c78161298b565b9050919050565b7f4552433732313a20617070726f766520746f2063616c6c657200000000000000600082015250565b6000612a04601983611cc5565b9150612a0f826129ce565b602082019050919050565b60006020820190508181036000830152612a33816129f7565b9050919050565b7f4552433732313a207472616e7366657220746f206e6f6e20455243373231526560008201527f63656976657220696d706c656d656e7465720000000000000000000000000000602082015250565b6000612a96603283611cc5565b9150612aa182612a3a565b604082019050919050565b60006020820190508181036000830152612ac581612a89565b9050919050565b6000612ad782611d6c565b91507fffffffffffffffffffffffffffffffffffffffffffffffffffffffffffffffff8203612b0957612b086125dd565b5b600182019050919050565b7f4e487b7100000000000000000000000000000000000000000000000000000000600052601260045260246000fd5b6000612b4e82611d6c565b9150612b5983611d6c565b925082612b6957612b68612b14565b5b828204905092915050565b6000612b7f82611d6c565b9150612b8a83611d6c565b925082612b9a57612b99612b14565b5b828206905092915050565b7f4e487b7100000000000000000000000000000000000000000000000000000000600052603260045260246000fd5b7f596f752063616e6e6f74207472616e7366657220616e7920746f6b656e210000600082015250565b6000612c0a601e83611cc5565b9150612c1582612bd4565b602082019050919050565b60006020820190508181036000830152612c3981612bfd565b9050919050565b600081519050919050565b600082825260208201905092915050565b6000612c6782612c40565b612c718185612c4b565b9350612c81818560208601611cd6565b612c8a81611d00565b840191505092915050565b6000608082019050612caa6000830187611e01565b612cb76020830186611e01565b612cc46040830185611f17565b8181036060830152612cd68184612c5c565b905095945050505050565b600081519050612cf081611c2b565b92915050565b600060208284031215612d0c57612d0b611bf5565b5b6000612d1a84828501612ce1565b9150509291505056fea26469706673582212201a82696f50db625f2c6924e64dfa22ebbdc3fc0a3bb1c4e960cd063814d0b05064736f6c63430008110033",
  "linkReferences": {},
  "deployedLinkReferences": {}
}