{
  "_format": "hh-sol-artifact-1",
  "contractName": "DrivageFactory",
  "sourceName": "contracts/DrivageFactory.sol",
  "abi": [
    {
      "inputs": [
        {
          "internalType": "address",
          "name": "_dcoinAddress",
          "type": "address"
        }
      ],
      "stateMutability": "nonpayable",
      "type": "constructor"
    },
    {
      "anonymous": false,
      "inputs": [
        {
          "indexed": true,
          "internalType": "address",
          "name": "owner",
          "type": "address"
        },
        {
          "indexed": true,
          "internalType": "address",
          "name": "approved",
          "type": "address"
        },
        {
          "indexed": true,
          "internalType": "uint256",
          "name": "tokenId",
          "type": "uint256"
        }
      ],
      "name": "Approval",
      "type": "event"
    },
    {
      "anonymous": false,
      "inputs": [
        {
          "indexed": true,
          "internalType": "address",
          "name": "owner",
          "type": "address"
        },
        {
          "indexed": true,
          "internalType": "address",
          "name": "operator",
          "type": "address"
        },
        {
          "indexed": false,
          "internalType": "bool",
          "name": "approved",
          "type": "bool"
        }
      ],
      "name": "ApprovalForAll",
      "type": "event"
    },
    {
      "anonymous": false,
      "inputs": [
        {
          "indexed": true,
          "internalType": "address",
          "name": "previousOwner",
          "type": "address"
        },
        {
          "indexed": true,
          "internalType": "address",
          "name": "newOwner",
          "type": "address"
        }
      ],
      "name": "OwnershipTransferred",
      "type": "event"
    },
    {
      "anonymous": false,
      "inputs": [
        {
          "indexed": true,
          "internalType": "address",
          "name": "from",
          "type": "address"
        },
        {
          "indexed": true,
          "internalType": "address",
          "name": "to",
          "type": "address"
        },
        {
          "indexed": true,
          "internalType": "uint256",
          "name": "tokenId",
          "type": "uint256"
        }
      ],
      "name": "Transfer",
      "type": "event"
    },
    {
      "inputs": [],
      "name": "Dcoin",
      "outputs": [
        {
          "internalType": "contract IDcoin",
          "name": "",
          "type": "address"
        }
      ],
      "stateMutability": "view",
      "type": "function"
    },
    {
      "inputs": [
        {
          "internalType": "address",
          "name": "to",
          "type": "address"
        },
        {
          "internalType": "uint256",
          "name": "tokenId",
          "type": "uint256"
        }
      ],
      "name": "approve",
      "outputs": [],
      "stateMutability": "nonpayable",
      "type": "function"
    },
    {
      "inputs": [
        {
          "internalType": "address",
          "name": "owner",
          "type": "address"
        }
      ],
      "name": "balanceOf",
      "outputs": [
        {
          "internalType": "uint256",
          "name": "",
          "type": "uint256"
        }
      ],
      "stateMutability": "view",
      "type": "function"
    },
    {
      "inputs": [
        {
          "internalType": "uint256",
          "name": "newMax",
          "type": "uint256"
        }
      ],
      "name": "changeMaxAnznPerPlay",
      "outputs": [],
      "stateMutability": "nonpayable",
      "type": "function"
    },
    {
      "inputs": [
        {
          "internalType": "uint256",
          "name": "amount",
          "type": "uint256"
        }
      ],
      "name": "consumeDcoin",
      "outputs": [],
      "stateMutability": "nonpayable",
      "type": "function"
    },
    {
      "inputs": [
        {
          "internalType": "address",
          "name": "user",
          "type": "address"
        }
      ],
      "name": "getAnznBalanceOf",
      "outputs": [
        {
          "internalType": "uint256",
          "name": "",
          "type": "uint256"
        }
      ],
      "stateMutability": "view",
      "type": "function"
    },
    {
      "inputs": [
        {
          "internalType": "uint256",
          "name": "tokenId",
          "type": "uint256"
        }
      ],
      "name": "getApproved",
      "outputs": [
        {
          "internalType": "address",
          "name": "",
          "type": "address"
        }
      ],
      "stateMutability": "view",
      "type": "function"
    },
    {
      "inputs": [
        {
          "internalType": "address",
          "name": "user",
          "type": "address"
        }
      ],
      "name": "getDcoinBalanceOf",
      "outputs": [
        {
          "internalType": "uint256",
          "name": "",
          "type": "uint256"
        }
      ],
      "stateMutability": "view",
      "type": "function"
    },
    {
      "inputs": [],
      "name": "initializeUser",
      "outputs": [],
      "stateMutability": "nonpayable",
      "type": "function"
    },
    {
      "inputs": [
        {
          "internalType": "address",
          "name": "owner",
          "type": "address"
        },
        {
          "internalType": "address",
          "name": "operator",
          "type": "address"
        }
      ],
      "name": "isApprovedForAll",
      "outputs": [
        {
          "internalType": "bool",
          "name": "",
          "type": "bool"
        }
      ],
      "stateMutability": "view",
      "type": "function"
    },
    {
      "inputs": [],
      "name": "name",
      "outputs": [
        {
          "internalType": "string",
          "name": "",
          "type": "string"
        }
      ],
      "stateMutability": "view",
      "type": "function"
    },
    {
      "inputs": [],
      "name": "owner",
      "outputs": [
        {
          "internalType": "address",
          "name": "",
          "type": "address"
        }
      ],
      "stateMutability": "view",
      "type": "function"
    },
    {
      "inputs": [
        {
          "internalType": "uint256",
          "name": "tokenId",
          "type": "uint256"
        }
      ],
      "name": "ownerOf",
      "outputs": [
        {
          "internalType": "address",
          "name": "",
          "type": "address"
        }
      ],
      "stateMutability": "view",
      "type": "function"
    },
    {
      "inputs": [],
      "name": "renounceOwnership",
      "outputs": [],
      "stateMutability": "nonpayable",
      "type": "function"
    },
    {
      "inputs": [
        {
          "internalType": "address",
          "name": "from",
          "type": "address"
        },
        {
          "internalType": "address",
          "name": "to",
          "type": "address"
        },
        {
          "internalType": "uint256",
          "name": "tokenId",
          "type": "uint256"
        }
      ],
      "name": "safeTransferFrom",
      "outputs": [],
      "stateMutability": "nonpayable",
      "type": "function"
    },
    {
      "inputs": [
        {
          "internalType": "address",
          "name": "from",
          "type": "address"
        },
        {
          "internalType": "address",
          "name": "to",
          "type": "address"
        },
        {
          "internalType": "uint256",
          "name": "tokenId",
          "type": "uint256"
        },
        {
          "internalType": "bytes",
          "name": "data",
          "type": "bytes"
        }
      ],
      "name": "safeTransferFrom",
      "outputs": [],
      "stateMutability": "nonpayable",
      "type": "function"
    },
    {
      "inputs": [
        {
          "internalType": "address",
          "name": "operator",
          "type": "address"
        },
        {
          "internalType": "bool",
          "name": "approved",
          "type": "bool"
        }
      ],
      "name": "setApprovalForAll",
      "outputs": [],
      "stateMutability": "nonpayable",
      "type": "function"
    },
    {
      "inputs": [
        {
          "internalType": "address",
          "name": "_dcoinAddrress",
          "type": "address"
        }
      ],
      "name": "setDcoinAddrress",
      "outputs": [],
      "stateMutability": "nonpayable",
      "type": "function"
    },
    {
      "inputs": [
        {
          "internalType": "bytes4",
          "name": "interfaceId",
          "type": "bytes4"
        }
      ],
      "name": "supportsInterface",
      "outputs": [
        {
          "internalType": "bool",
          "name": "",
          "type": "bool"
        }
      ],
      "stateMutability": "view",
      "type": "function"
    },
    {
      "inputs": [],
      "name": "symbol",
      "outputs": [
        {
          "internalType": "string",
          "name": "",
          "type": "string"
        }
      ],
      "stateMutability": "view",
      "type": "function"
    },
    {
      "inputs": [
        {
          "internalType": "uint256",
          "name": "tokenId",
          "type": "uint256"
        }
      ],
      "name": "tokenURI",
      "outputs": [
        {
          "internalType": "string",
          "name": "",
          "type": "string"
        }
      ],
      "stateMutability": "view",
      "type": "function"
    },
    {
      "inputs": [
        {
          "internalType": "address",
          "name": "from",
          "type": "address"
        },
        {
          "internalType": "address",
          "name": "to",
          "type": "address"
        },
        {
          "internalType": "uint256",
          "name": "tokenId",
          "type": "uint256"
        }
      ],
      "name": "transferFrom",
      "outputs": [],
      "stateMutability": "nonpayable",
      "type": "function"
    },
    {
      "inputs": [
        {
          "internalType": "address",
          "name": "newOwner",
          "type": "address"
        }
      ],
      "name": "transferOwnership",
      "outputs": [],
      "stateMutability": "nonpayable",
      "type": "function"
    },
    {
      "inputs": [
        {
          "internalType": "uint256",
          "name": "driveScore",
          "type": "uint256"
        }
      ],
      "name": "updateBalances",
      "outputs": [],
      "stateMutability": "nonpayable",
      "type": "function"
    }
  ],
  "bytecode": "0x60806040526005600b553480156200001657600080fd5b50604051620037cb380380620037cb83398181016040528101906200003c91906200034d565b6040518060400160405280600981526020017f414e5a4e53636f726500000000000000000000000000000000000000000000008152506040518060400160405280600481526020017f414e5a4e000000000000000000000000000000000000000000000000000000008152508160009081620000b99190620005f9565b508060019081620000cb9190620005f9565b505050620000ee620000e26200010660201b60201c565b6200010e60201b60201c565b620000ff81620001d460201b60201c565b5062000763565b600033905090565b6000600660009054906101000a900473ffffffffffffffffffffffffffffffffffffffff16905081600660006101000a81548173ffffffffffffffffffffffffffffffffffffffff021916908373ffffffffffffffffffffffffffffffffffffffff1602179055508173ffffffffffffffffffffffffffffffffffffffff168173ffffffffffffffffffffffffffffffffffffffff167f8be0079c531659141344cd1fd0a4f28419497f9722a3daafe3b4186f6b6457e060405160405180910390a35050565b620001e46200022860201b60201c565b80600a60006101000a81548173ffffffffffffffffffffffffffffffffffffffff021916908373ffffffffffffffffffffffffffffffffffffffff16021790555050565b620002386200010660201b60201c565b73ffffffffffffffffffffffffffffffffffffffff166200025e620002b960201b60201c565b73ffffffffffffffffffffffffffffffffffffffff1614620002b7576040517f08c379a0000000000000000000000000000000000000000000000000000000008152600401620002ae9062000741565b60405180910390fd5b565b6000600660009054906101000a900473ffffffffffffffffffffffffffffffffffffffff16905090565b600080fd5b600073ffffffffffffffffffffffffffffffffffffffff82169050919050565b60006200031582620002e8565b9050919050565b620003278162000308565b81146200033357600080fd5b50565b60008151905062000347816200031c565b92915050565b600060208284031215620003665762000365620002e3565b5b6000620003768482850162000336565b91505092915050565b600081519050919050565b7f4e487b7100000000000000000000000000000000000000000000000000000000600052604160045260246000fd5b7f4e487b7100000000000000000000000000000000000000000000000000000000600052602260045260246000fd5b600060028204905060018216806200040157607f821691505b602082108103620004175762000416620003b9565b5b50919050565b60008190508160005260206000209050919050565b60006020601f8301049050919050565b600082821b905092915050565b600060088302620004817fffffffffffffffffffffffffffffffffffffffffffffffffffffffffffffffff8262000442565b6200048d868362000442565b95508019841693508086168417925050509392505050565b6000819050919050565b6000819050919050565b6000620004da620004d4620004ce84620004a5565b620004af565b620004a5565b9050919050565b6000819050919050565b620004f683620004b9565b6200050e6200050582620004e1565b8484546200044f565b825550505050565b600090565b6200052562000516565b62000532818484620004eb565b505050565b5b818110156200055a576200054e6000826200051b565b60018101905062000538565b5050565b601f821115620005a95762000573816200041d565b6200057e8462000432565b810160208510156200058e578190505b620005a66200059d8562000432565b83018262000537565b50505b505050565b600082821c905092915050565b6000620005ce60001984600802620005ae565b1980831691505092915050565b6000620005e98383620005bb565b9150826002028217905092915050565b62000604826200037f565b67ffffffffffffffff81111562000620576200061f6200038a565b5b6200062c8254620003e8565b620006398282856200055e565b600060209050601f8311600181146200067157600084156200065c578287015190505b620006688582620005db565b865550620006d8565b601f19841662000681866200041d565b60005b82811015620006ab5784890151825560018201915060208501945060208101905062000684565b86831015620006cb5784890151620006c7601f891682620005bb565b8355505b6001600288020188555050505b505050505050565b600082825260208201905092915050565b7f4f776e61626c653a2063616c6c6572206973206e6f7420746865206f776e6572600082015250565b600062000729602083620006e0565b91506200073682620006f1565b602082019050919050565b600060208201905081810360008301526200075c816200071a565b9050919050565b61305880620007736000396000f3fe608060405234801561001057600080fd5b50600436106101585760003560e01c80636ff036c3116100c3578063a278479b1161007c578063a278479b1461039b578063b34a8cac146103b9578063b88d4fde146103e9578063c87b56dd14610405578063e985e9c514610435578063f2fde38b1461046557610158565b80636ff036c3146102ed57806370a0823114610309578063715018a6146103395780638da5cb5b1461034357806395d89b4114610361578063a22cb4651461037f57610158565b806342842e0e1161011557806342842e0e1461022f57806348c22a511461024b5780634b3538881461027b5780634f02b415146102855780636352211e146102a15780636356072f146102d157610158565b806301ffc9a71461015d57806306fdde031461018d578063081812fc146101ab578063095ea7b3146101db5780631209073c146101f757806323b872dd14610213575b600080fd5b61017760048036038101906101729190611e4b565b610481565b6040516101849190611e93565b60405180910390f35b610195610563565b6040516101a29190611f3e565b60405180910390f35b6101c560048036038101906101c09190611f96565b6105f5565b6040516101d29190612004565b60405180910390f35b6101f560048036038101906101f0919061204b565b61063b565b005b610211600480360381019061020c9190611f96565b610752565b005b61022d6004803603810190610228919061208b565b61083e565b005b6102496004803603810190610244919061208b565b61089e565b005b610265600480360381019061026091906120de565b6108be565b604051610272919061211a565b60405180910390f35b61028361091a565b005b61029f600480360381019061029a9190611f96565b610924565b005b6102bb60048036038101906102b69190611f96565b610936565b6040516102c89190612004565b60405180910390f35b6102eb60048036038101906102e69190611f96565b6109e7565b005b610307600480360381019061030291906120de565b610a77565b005b610323600480360381019061031e91906120de565b610ac3565b604051610330919061211a565b60405180910390f35b610341610b7a565b005b61034b610b8e565b6040516103589190612004565b60405180910390f35b610369610bb8565b6040516103769190611f3e565b60405180910390f35b61039960048036038101906103949190612161565b610c4a565b005b6103a3610c60565b6040516103b09190612200565b60405180910390f35b6103d360048036038101906103ce91906120de565b610c86565b6040516103e0919061211a565b60405180910390f35b61040360048036038101906103fe9190612350565b610d2b565b005b61041f600480360381019061041a9190611f96565b610d8d565b60405161042c9190611f3e565b60405180910390f35b61044f600480360381019061044a91906123d3565b610df5565b60405161045c9190611e93565b60405180910390f35b61047f600480360381019061047a91906120de565b610e89565b005b60007f80ac58cd000000000000000000000000000000000000000000000000000000007bffffffffffffffffffffffffffffffffffffffffffffffffffffffff1916827bffffffffffffffffffffffffffffffffffffffffffffffffffffffff1916148061054c57507f5b5e139f000000000000000000000000000000000000000000000000000000007bffffffffffffffffffffffffffffffffffffffffffffffffffffffff1916827bffffffffffffffffffffffffffffffffffffffffffffffffffffffff1916145b8061055c575061055b82610f0c565b5b9050919050565b60606000805461057290612442565b80601f016020809104026020016040519081016040528092919081815260200182805461059e90612442565b80156105eb5780601f106105c0576101008083540402835291602001916105eb565b820191906000526020600020905b8154815290600101906020018083116105ce57829003601f168201915b5050505050905090565b600061060082610f76565b6004600083815260200190815260200160002060009054906101000a900473ffffffffffffffffffffffffffffffffffffffff169050919050565b600061064682610936565b90508073ffffffffffffffffffffffffffffffffffffffff168373ffffffffffffffffffffffffffffffffffffffff16036106b6576040517f08c379a00000000000000000000000000000000000000000000000000000000081526004016106ad906124e5565b60405180910390fd5b8073ffffffffffffffffffffffffffffffffffffffff166106d5610fc1565b73ffffffffffffffffffffffffffffffffffffffff1614806107045750610703816106fe610fc1565b610df5565b5b610743576040517f08c379a000000000000000000000000000000000000000000000000000000000815260040161073a90612577565b60405180910390fd5b61074d8383610fc9565b505050565b600b54811115610797576040517f08c379a000000000000000000000000000000000000000000000000000000000815260040161078e90612609565b60405180910390fd5b600081905060008190506107aa82611082565b600a60009054906101000a900473ffffffffffffffffffffffffffffffffffffffff1673ffffffffffffffffffffffffffffffffffffffff166340c10f1933836040518363ffffffff1660e01b8152600401610807929190612629565b600060405180830381600087803b15801561082157600080fd5b505af1158015610835573d6000803e3d6000fd5b50505050505050565b61084f610849610fc1565b82611108565b61088e576040517f08c379a0000000000000000000000000000000000000000000000000000000008152600401610885906126c4565b60405180910390fd5b61089983838361119d565b505050565b6108b983838360405180602001604052806000815250610d2b565b505050565b600060086000600960008573ffffffffffffffffffffffffffffffffffffffff1673ffffffffffffffffffffffffffffffffffffffff168152602001908152602001600020548152602001908152602001600020549050919050565b610922611403565b565b61092c6114d0565b80600b8190555050565b6000806002600084815260200190815260200160002060009054906101000a900473ffffffffffffffffffffffffffffffffffffffff169050600073ffffffffffffffffffffffffffffffffffffffff168173ffffffffffffffffffffffffffffffffffffffff16036109de576040517f08c379a00000000000000000000000000000000000000000000000000000000081526004016109d590612730565b60405180910390fd5b80915050919050565b600a60009054906101000a900473ffffffffffffffffffffffffffffffffffffffff1673ffffffffffffffffffffffffffffffffffffffff166342966c68826040518263ffffffff1660e01b8152600401610a42919061211a565b600060405180830381600087803b158015610a5c57600080fd5b505af1158015610a70573d6000803e3d6000fd5b5050505050565b610a7f6114d0565b80600a60006101000a81548173ffffffffffffffffffffffffffffffffffffffff021916908373ffffffffffffffffffffffffffffffffffffffff16021790555050565b60008073ffffffffffffffffffffffffffffffffffffffff168273ffffffffffffffffffffffffffffffffffffffff1603610b33576040517f08c379a0000000000000000000000000000000000000000000000000000000008152600401610b2a906127c2565b60405180910390fd5b600360008373ffffffffffffffffffffffffffffffffffffffff1673ffffffffffffffffffffffffffffffffffffffff168152602001908152602001600020549050919050565b610b826114d0565b610b8c600061154e565b565b6000600660009054906101000a900473ffffffffffffffffffffffffffffffffffffffff16905090565b606060018054610bc790612442565b80601f0160208091040260200160405190810160405280929190818152602001828054610bf390612442565b8015610c405780601f10610c1557610100808354040283529160200191610c40565b820191906000526020600020905b815481529060010190602001808311610c2357829003601f168201915b5050505050905090565b610c5c610c55610fc1565b8383611614565b5050565b600a60009054906101000a900473ffffffffffffffffffffffffffffffffffffffff1681565b6000600a60009054906101000a900473ffffffffffffffffffffffffffffffffffffffff1673ffffffffffffffffffffffffffffffffffffffff166370a08231836040518263ffffffff1660e01b8152600401610ce39190612004565b602060405180830381865afa158015610d00573d6000803e3d6000fd5b505050506040513d601f19601f82011682018060405250810190610d2491906127f7565b9050919050565b610d3c610d36610fc1565b83611108565b610d7b576040517f08c379a0000000000000000000000000000000000000000000000000000000008152600401610d72906126c4565b60405180910390fd5b610d8784848484611780565b50505050565b6060610d9882610f76565b6000610da26117dc565b90506000815111610dc25760405180602001604052806000815250610ded565b80610dcc846117f3565b604051602001610ddd929190612860565b6040516020818303038152906040525b915050919050565b6000600560008473ffffffffffffffffffffffffffffffffffffffff1673ffffffffffffffffffffffffffffffffffffffff16815260200190815260200160002060008373ffffffffffffffffffffffffffffffffffffffff1673ffffffffffffffffffffffffffffffffffffffff16815260200190815260200160002060009054906101000a900460ff16905092915050565b610e916114d0565b600073ffffffffffffffffffffffffffffffffffffffff168173ffffffffffffffffffffffffffffffffffffffff1603610f00576040517f08c379a0000000000000000000000000000000000000000000000000000000008152600401610ef7906128f6565b60405180910390fd5b610f098161154e565b50565b60007f01ffc9a7000000000000000000000000000000000000000000000000000000007bffffffffffffffffffffffffffffffffffffffffffffffffffffffff1916827bffffffffffffffffffffffffffffffffffffffffffffffffffffffff1916149050919050565b610f7f81611953565b610fbe576040517f08c379a0000000000000000000000000000000000000000000000000000000008152600401610fb590612730565b60405180910390fd5b50565b600033905090565b816004600083815260200190815260200160002060006101000a81548173ffffffffffffffffffffffffffffffffffffffff021916908373ffffffffffffffffffffffffffffffffffffffff160217905550808273ffffffffffffffffffffffffffffffffffffffff1661103c83610936565b73ffffffffffffffffffffffffffffffffffffffff167f8c5be1e5ebec7d5bd14f71427d1e84f3dd0314c0f7b2291e5b200ac8c7c3b92560405160405180910390a45050565b600161108d33610ac3565b101561109c5761109b611403565b5b8060086000600960003373ffffffffffffffffffffffffffffffffffffffff1673ffffffffffffffffffffffffffffffffffffffff16815260200190815260200160002054815260200190815260200160002060008282546110fe9190612945565b9250508190555050565b60008061111483610936565b90508073ffffffffffffffffffffffffffffffffffffffff168473ffffffffffffffffffffffffffffffffffffffff16148061115657506111558185610df5565b5b8061119457508373ffffffffffffffffffffffffffffffffffffffff1661117c846105f5565b73ffffffffffffffffffffffffffffffffffffffff16145b91505092915050565b8273ffffffffffffffffffffffffffffffffffffffff166111bd82610936565b73ffffffffffffffffffffffffffffffffffffffff1614611213576040517f08c379a000000000000000000000000000000000000000000000000000000000815260040161120a906129eb565b60405180910390fd5b600073ffffffffffffffffffffffffffffffffffffffff168273ffffffffffffffffffffffffffffffffffffffff1603611282576040517f08c379a000000000000000000000000000000000000000000000000000000000815260040161127990612a7d565b60405180910390fd5b61128d8383836119bf565b611298600082610fc9565b6001600360008573ffffffffffffffffffffffffffffffffffffffff1673ffffffffffffffffffffffffffffffffffffffff16815260200190815260200160002060008282546112e89190612a9d565b925050819055506001600360008473ffffffffffffffffffffffffffffffffffffffff1673ffffffffffffffffffffffffffffffffffffffff168152602001908152602001600020600082825461133f9190612945565b92505081905550816002600083815260200190815260200160002060006101000a81548173ffffffffffffffffffffffffffffffffffffffff021916908373ffffffffffffffffffffffffffffffffffffffff160217905550808273ffffffffffffffffffffffffffffffffffffffff168473ffffffffffffffffffffffffffffffffffffffff167fddf252ad1be2c89b69c2b068fc378daa952ba7f163c4a11628f55a4df523b3ef60405160405180910390a46113fe838383611a33565b505050565b600161140e33610ac3565b1061144e576040517f08c379a000000000000000000000000000000000000000000000000000000000815260040161144590612b43565b60405180910390fd5b600061145a6007611a38565b90506114663382611a46565b80600960003373ffffffffffffffffffffffffffffffffffffffff1673ffffffffffffffffffffffffffffffffffffffff16815260200190815260200160002081905550600060086000838152602001908152602001600020819055506114cd6007611c1f565b50565b6114d8610fc1565b73ffffffffffffffffffffffffffffffffffffffff166114f6610b8e565b73ffffffffffffffffffffffffffffffffffffffff161461154c576040517f08c379a000000000000000000000000000000000000000000000000000000000815260040161154390612baf565b60405180910390fd5b565b6000600660009054906101000a900473ffffffffffffffffffffffffffffffffffffffff16905081600660006101000a81548173ffffffffffffffffffffffffffffffffffffffff021916908373ffffffffffffffffffffffffffffffffffffffff1602179055508173ffffffffffffffffffffffffffffffffffffffff168173ffffffffffffffffffffffffffffffffffffffff167f8be0079c531659141344cd1fd0a4f28419497f9722a3daafe3b4186f6b6457e060405160405180910390a35050565b8173ffffffffffffffffffffffffffffffffffffffff168373ffffffffffffffffffffffffffffffffffffffff1603611682576040517f08c379a000000000000000000000000000000000000000000000000000000000815260040161167990612c1b565b60405180910390fd5b80600560008573ffffffffffffffffffffffffffffffffffffffff1673ffffffffffffffffffffffffffffffffffffffff16815260200190815260200160002060008473ffffffffffffffffffffffffffffffffffffffff1673ffffffffffffffffffffffffffffffffffffffff16815260200190815260200160002060006101000a81548160ff0219169083151502179055508173ffffffffffffffffffffffffffffffffffffffff168373ffffffffffffffffffffffffffffffffffffffff167f17307eab39ab6107e8899845ad3d59bd9653f200f220920489ca2b5937696c31836040516117739190611e93565b60405180910390a3505050565b61178b84848461119d565b61179784848484611c35565b6117d6576040517f08c379a00000000000000000000000000000000000000000000000000000000081526004016117cd90612cad565b60405180910390fd5b50505050565b606060405180602001604052806000815250905090565b60606000820361183a576040518060400160405280600181526020017f3000000000000000000000000000000000000000000000000000000000000000815250905061194e565b600082905060005b6000821461186c57808061185590612ccd565b915050600a826118659190612d44565b9150611842565b60008167ffffffffffffffff81111561188857611887612225565b5b6040519080825280601f01601f1916602001820160405280156118ba5781602001600182028036833780820191505090505b5090505b60008514611947576001826118d39190612a9d565b9150600a856118e29190612d75565b60306118ee9190612945565b60f81b81838151811061190457611903612da6565b5b60200101907effffffffffffffffffffffffffffffffffffffffffffffffffffffffffffff1916908160001a905350600a856119409190612d44565b94506118be565b8093505050505b919050565b60008073ffffffffffffffffffffffffffffffffffffffff166002600084815260200190815260200160002060009054906101000a900473ffffffffffffffffffffffffffffffffffffffff1673ffffffffffffffffffffffffffffffffffffffff1614159050919050565b600073ffffffffffffffffffffffffffffffffffffffff168373ffffffffffffffffffffffffffffffffffffffff1614611a2e576040517f08c379a0000000000000000000000000000000000000000000000000000000008152600401611a2590612e47565b60405180910390fd5b505050565b505050565b600081600001549050919050565b600073ffffffffffffffffffffffffffffffffffffffff168273ffffffffffffffffffffffffffffffffffffffff1603611ab5576040517f08c379a0000000000000000000000000000000000000000000000000000000008152600401611aac90612eb3565b60405180910390fd5b611abe81611953565b15611afe576040517f08c379a0000000000000000000000000000000000000000000000000000000008152600401611af590612f1f565b60405180910390fd5b611b0a600083836119bf565b6001600360008473ffffffffffffffffffffffffffffffffffffffff1673ffffffffffffffffffffffffffffffffffffffff1681526020019081526020016000206000828254611b5a9190612945565b92505081905550816002600083815260200190815260200160002060006101000a81548173ffffffffffffffffffffffffffffffffffffffff021916908373ffffffffffffffffffffffffffffffffffffffff160217905550808273ffffffffffffffffffffffffffffffffffffffff16600073ffffffffffffffffffffffffffffffffffffffff167fddf252ad1be2c89b69c2b068fc378daa952ba7f163c4a11628f55a4df523b3ef60405160405180910390a4611c1b60008383611a33565b5050565b6001816000016000828254019250508190555050565b6000611c568473ffffffffffffffffffffffffffffffffffffffff16611dbc565b15611daf578373ffffffffffffffffffffffffffffffffffffffff1663150b7a02611c7f610fc1565b8786866040518563ffffffff1660e01b8152600401611ca19493929190612f94565b6020604051808303816000875af1925050508015611cdd57506040513d601f19601f82011682018060405250810190611cda9190612ff5565b60015b611d5f573d8060008114611d0d576040519150601f19603f3d011682016040523d82523d6000602084013e611d12565b606091505b506000815103611d57576040517f08c379a0000000000000000000000000000000000000000000000000000000008152600401611d4e90612cad565b60405180910390fd5b805181602001fd5b63150b7a0260e01b7bffffffffffffffffffffffffffffffffffffffffffffffffffffffff1916817bffffffffffffffffffffffffffffffffffffffffffffffffffffffff191614915050611db4565b600190505b949350505050565b6000808273ffffffffffffffffffffffffffffffffffffffff163b119050919050565b6000604051905090565b600080fd5b600080fd5b60007fffffffff0000000000000000000000000000000000000000000000000000000082169050919050565b611e2881611df3565b8114611e3357600080fd5b50565b600081359050611e4581611e1f565b92915050565b600060208284031215611e6157611e60611de9565b5b6000611e6f84828501611e36565b91505092915050565b60008115159050919050565b611e8d81611e78565b82525050565b6000602082019050611ea86000830184611e84565b92915050565b600081519050919050565b600082825260208201905092915050565b60005b83811015611ee8578082015181840152602081019050611ecd565b60008484015250505050565b6000601f19601f8301169050919050565b6000611f1082611eae565b611f1a8185611eb9565b9350611f2a818560208601611eca565b611f3381611ef4565b840191505092915050565b60006020820190508181036000830152611f588184611f05565b905092915050565b6000819050919050565b611f7381611f60565b8114611f7e57600080fd5b50565b600081359050611f9081611f6a565b92915050565b600060208284031215611fac57611fab611de9565b5b6000611fba84828501611f81565b91505092915050565b600073ffffffffffffffffffffffffffffffffffffffff82169050919050565b6000611fee82611fc3565b9050919050565b611ffe81611fe3565b82525050565b60006020820190506120196000830184611ff5565b92915050565b61202881611fe3565b811461203357600080fd5b50565b6000813590506120458161201f565b92915050565b6000806040838503121561206257612061611de9565b5b600061207085828601612036565b925050602061208185828601611f81565b9150509250929050565b6000806000606084860312156120a4576120a3611de9565b5b60006120b286828701612036565b93505060206120c386828701612036565b92505060406120d486828701611f81565b9150509250925092565b6000602082840312156120f4576120f3611de9565b5b600061210284828501612036565b91505092915050565b61211481611f60565b82525050565b600060208201905061212f600083018461210b565b92915050565b61213e81611e78565b811461214957600080fd5b50565b60008135905061215b81612135565b92915050565b6000806040838503121561217857612177611de9565b5b600061218685828601612036565b92505060206121978582860161214c565b9150509250929050565b6000819050919050565b60006121c66121c16121bc84611fc3565b6121a1565b611fc3565b9050919050565b60006121d8826121ab565b9050919050565b60006121ea826121cd565b9050919050565b6121fa816121df565b82525050565b600060208201905061221560008301846121f1565b92915050565b600080fd5b600080fd5b7f4e487b7100000000000000000000000000000000000000000000000000000000600052604160045260246000fd5b61225d82611ef4565b810181811067ffffffffffffffff8211171561227c5761227b612225565b5b80604052505050565b600061228f611ddf565b905061229b8282612254565b919050565b600067ffffffffffffffff8211156122bb576122ba612225565b5b6122c482611ef4565b9050602081019050919050565b82818337600083830152505050565b60006122f36122ee846122a0565b612285565b90508281526020810184848401111561230f5761230e612220565b5b61231a8482856122d1565b509392505050565b600082601f8301126123375761233661221b565b5b81356123478482602086016122e0565b91505092915050565b6000806000806080858703121561236a57612369611de9565b5b600061237887828801612036565b945050602061238987828801612036565b935050604061239a87828801611f81565b925050606085013567ffffffffffffffff8111156123bb576123ba611dee565b5b6123c787828801612322565b91505092959194509250565b600080604083850312156123ea576123e9611de9565b5b60006123f885828601612036565b925050602061240985828601612036565b9150509250929050565b7f4e487b7100000000000000000000000000000000000000000000000000000000600052602260045260246000fd5b6000600282049050600182168061245a57607f821691505b60208210810361246d5761246c612413565b5b50919050565b7f4552433732313a20617070726f76616c20746f2063757272656e74206f776e6560008201527f7200000000000000000000000000000000000000000000000000000000000000602082015250565b60006124cf602183611eb9565b91506124da82612473565b604082019050919050565b600060208201905081810360008301526124fe816124c2565b9050919050565b7f4552433732313a20617070726f76652063616c6c6572206973206e6f7420746f60008201527f6b656e206f776e6572206e6f7220617070726f76656420666f7220616c6c0000602082015250565b6000612561603e83611eb9565b915061256c82612505565b604082019050919050565b6000602082019050818103600083015261259081612554565b9050919050565b7f546865207375626d69747465642073636f726520697320696e76616c69642c2060008201527f657863656564696e672074686520686967686573742073636f72652e00000000602082015250565b60006125f3603c83611eb9565b91506125fe82612597565b604082019050919050565b60006020820190508181036000830152612622816125e6565b9050919050565b600060408201905061263e6000830185611ff5565b61264b602083018461210b565b9392505050565b7f4552433732313a2063616c6c6572206973206e6f7420746f6b656e206f776e6560008201527f72206e6f7220617070726f766564000000000000000000000000000000000000602082015250565b60006126ae602e83611eb9565b91506126b982612652565b604082019050919050565b600060208201905081810360008301526126dd816126a1565b9050919050565b7f4552433732313a20696e76616c696420746f6b656e2049440000000000000000600082015250565b600061271a601883611eb9565b9150612725826126e4565b602082019050919050565b600060208201905081810360008301526127498161270d565b9050919050565b7f4552433732313a2061646472657373207a65726f206973206e6f74206120766160008201527f6c6964206f776e65720000000000000000000000000000000000000000000000602082015250565b60006127ac602983611eb9565b91506127b782612750565b604082019050919050565b600060208201905081810360008301526127db8161279f565b9050919050565b6000815190506127f181611f6a565b92915050565b60006020828403121561280d5761280c611de9565b5b600061281b848285016127e2565b91505092915050565b600081905092915050565b600061283a82611eae565b6128448185612824565b9350612854818560208601611eca565b80840191505092915050565b600061286c828561282f565b9150612878828461282f565b91508190509392505050565b7f4f776e61626c653a206e6577206f776e657220697320746865207a65726f206160008201527f6464726573730000000000000000000000000000000000000000000000000000602082015250565b60006128e0602683611eb9565b91506128eb82612884565b604082019050919050565b6000602082019050818103600083015261290f816128d3565b9050919050565b7f4e487b7100000000000000000000000000000000000000000000000000000000600052601160045260246000fd5b600061295082611f60565b915061295b83611f60565b925082820190508082111561297357612972612916565b5b92915050565b7f4552433732313a207472616e736665722066726f6d20696e636f72726563742060008201527f6f776e6572000000000000000000000000000000000000000000000000000000602082015250565b60006129d5602583611eb9565b91506129e082612979565b604082019050919050565b60006020820190508181036000830152612a04816129c8565b9050919050565b7f4552433732313a207472616e7366657220746f20746865207a65726f2061646460008201527f7265737300000000000000000000000000000000000000000000000000000000602082015250565b6000612a67602483611eb9565b9150612a7282612a0b565b604082019050919050565b60006020820190508181036000830152612a9681612a5a565b9050919050565b6000612aa882611f60565b9150612ab383611f60565b9250828203905081811115612acb57612aca612916565b5b92915050565b7f596f7520616c7265616479206861766520796f757220414e5a4e2077616c6c6560008201527f7421000000000000000000000000000000000000000000000000000000000000602082015250565b6000612b2d602283611eb9565b9150612b3882612ad1565b604082019050919050565b60006020820190508181036000830152612b5c81612b20565b9050919050565b7f4f776e61626c653a2063616c6c6572206973206e6f7420746865206f776e6572600082015250565b6000612b99602083611eb9565b9150612ba482612b63565b602082019050919050565b60006020820190508181036000830152612bc881612b8c565b9050919050565b7f4552433732313a20617070726f766520746f2063616c6c657200000000000000600082015250565b6000612c05601983611eb9565b9150612c1082612bcf565b602082019050919050565b60006020820190508181036000830152612c3481612bf8565b9050919050565b7f4552433732313a207472616e7366657220746f206e6f6e20455243373231526560008201527f63656976657220696d706c656d656e7465720000000000000000000000000000602082015250565b6000612c97603283611eb9565b9150612ca282612c3b565b604082019050919050565b60006020820190508181036000830152612cc681612c8a565b9050919050565b6000612cd882611f60565b91507fffffffffffffffffffffffffffffffffffffffffffffffffffffffffffffffff8203612d0a57612d09612916565b5b600182019050919050565b7f4e487b7100000000000000000000000000000000000000000000000000000000600052601260045260246000fd5b6000612d4f82611f60565b9150612d5a83611f60565b925082612d6a57612d69612d15565b5b828204905092915050565b6000612d8082611f60565b9150612d8b83611f60565b925082612d9b57612d9a612d15565b5b828206905092915050565b7f4e487b7100000000000000000000000000000000000000000000000000000000600052603260045260246000fd5b7f596f752063616e6e6f74207472616e7366657220616e7920414e5a4e20746f6b60008201527f656e210000000000000000000000000000000000000000000000000000000000602082015250565b6000612e31602383611eb9565b9150612e3c82612dd5565b604082019050919050565b60006020820190508181036000830152612e6081612e24565b9050919050565b7f4552433732313a206d696e7420746f20746865207a65726f2061646472657373600082015250565b6000612e9d602083611eb9565b9150612ea882612e67565b602082019050919050565b60006020820190508181036000830152612ecc81612e90565b9050919050565b7f4552433732313a20746f6b656e20616c7265616479206d696e74656400000000600082015250565b6000612f09601c83611eb9565b9150612f1482612ed3565b602082019050919050565b60006020820190508181036000830152612f3881612efc565b9050919050565b600081519050919050565b600082825260208201905092915050565b6000612f6682612f3f565b612f708185612f4a565b9350612f80818560208601611eca565b612f8981611ef4565b840191505092915050565b6000608082019050612fa96000830187611ff5565b612fb66020830186611ff5565b612fc3604083018561210b565b8181036060830152612fd58184612f5b565b905095945050505050565b600081519050612fef81611e1f565b92915050565b60006020828403121561300b5761300a611de9565b5b600061301984828501612fe0565b9150509291505056fea2646970667358221220aa8750d2a187a48a2f22ee8c1f77620a60edd1214c8c5ce3bd183943af23fbc864736f6c63430008110033",
  "linkReferences": {},
  "deployedLinkReferences": {}
}